{
  "contractName": "Core",
  "abi": [
    {
      "inputs": [],
      "stateMutability": "payable",
      "type": "constructor"
    },
    {
      "stateMutability": "payable",
      "type": "fallback"
    },
    {
      "inputs": [],
      "name": "ETH_TOKEN_PLACEHOLDER_ADDRESS",
      "outputs": [
        {
          "internalType": "address",
          "name": "",
          "type": "address"
        }
      ],
      "stateMutability": "view",
      "type": "function"
    },
    {
      "inputs": [],
      "name": "WETH_TOKEN_ADDRESS",
      "outputs": [
        {
          "internalType": "address",
          "name": "",
          "type": "address"
        }
      ],
      "stateMutability": "view",
      "type": "function"
    },
    {
      "inputs": [],
      "name": "converterAddress",
      "outputs": [
        {
          "internalType": "address",
          "name": "",
          "type": "address"
        }
      ],
      "stateMutability": "view",
      "type": "function"
    },
    {
      "inputs": [],
      "name": "oracleAddress",
      "outputs": [
        {
          "internalType": "address",
          "name": "",
          "type": "address"
        }
      ],
      "stateMutability": "view",
      "type": "function"
    },
    {
      "inputs": [],
      "name": "owner",
      "outputs": [
        {
          "internalType": "address payable",
          "name": "",
          "type": "address"
        }
      ],
      "stateMutability": "view",
      "type": "function"
    },
    {
      "inputs": [],
      "name": "stakingAddress",
      "outputs": [
        {
          "internalType": "address",
          "name": "",
          "type": "address"
        }
      ],
      "stateMutability": "view",
      "type": "function"
    },
    {
      "inputs": [
        {
          "internalType": "address",
          "name": "theAddress",
          "type": "address"
        }
      ],
      "name": "setOracleAddress",
      "outputs": [
        {
          "internalType": "bool",
          "name": "",
          "type": "bool"
        }
      ],
      "stateMutability": "nonpayable",
      "type": "function"
    },
    {
      "inputs": [
        {
          "internalType": "address",
          "name": "theAddress",
          "type": "address"
        }
      ],
      "name": "setStakingAddress",
      "outputs": [
        {
          "internalType": "bool",
          "name": "",
          "type": "bool"
        }
      ],
      "stateMutability": "nonpayable",
      "type": "function"
    },
    {
      "inputs": [
        {
          "internalType": "address",
          "name": "theAddress",
          "type": "address"
        }
      ],
      "name": "setConverterAddress",
      "outputs": [
        {
          "internalType": "bool",
          "name": "",
          "type": "bool"
        }
      ],
      "stateMutability": "nonpayable",
      "type": "function"
    },
    {
      "inputs": [
        {
          "internalType": "address payable",
          "name": "newOwner",
          "type": "address"
        }
      ],
      "name": "changeOwner",
      "outputs": [
        {
          "internalType": "bool",
          "name": "",
          "type": "bool"
        }
      ],
      "stateMutability": "nonpayable",
      "type": "function"
    },
    {
      "inputs": [
        {
          "internalType": "string",
          "name": "tier2ContractName",
          "type": "string"
        },
        {
          "internalType": "address",
          "name": "tokenAddress",
          "type": "address"
        },
        {
          "internalType": "uint256",
          "name": "amount",
          "type": "uint256"
        }
      ],
      "name": "deposit",
      "outputs": [
        {
          "internalType": "bool",
          "name": "",
          "type": "bool"
        }
      ],
      "stateMutability": "payable",
      "type": "function"
    },
    {
      "inputs": [
        {
          "internalType": "string",
          "name": "tier2ContractName",
          "type": "string"
        },
        {
          "internalType": "address",
          "name": "tokenAddress",
          "type": "address"
        },
        {
          "internalType": "uint256",
          "name": "amount",
          "type": "uint256"
        }
      ],
      "name": "withdraw",
      "outputs": [
        {
          "internalType": "bool",
          "name": "",
          "type": "bool"
        }
      ],
      "stateMutability": "payable",
      "type": "function"
    },
    {
      "inputs": [
        {
          "internalType": "address",
          "name": "sourceToken",
          "type": "address"
        },
        {
          "internalType": "address[]",
          "name": "destinationTokens",
          "type": "address[]"
        },
        {
          "internalType": "uint256",
          "name": "amount",
          "type": "uint256"
        }
      ],
      "name": "convert",
      "outputs": [
        {
          "internalType": "address",
          "name": "",
          "type": "address"
        },
        {
          "internalType": "uint256",
          "name": "",
          "type": "uint256"
        }
      ],
      "stateMutability": "payable",
      "type": "function"
    },
    {
      "inputs": [
        {
          "internalType": "address",
          "name": "sourceToken",
          "type": "address"
        },
        {
          "internalType": "address",
          "name": "destinationToken",
          "type": "address"
        },
        {
          "internalType": "uint256",
          "name": "amount",
          "type": "uint256"
        }
      ],
      "name": "deconvert",
      "outputs": [
        {
          "internalType": "uint256",
          "name": "",
          "type": "uint256"
        }
      ],
      "stateMutability": "payable",
      "type": "function"
    },
    {
      "inputs": [],
      "name": "getStakableTokens",
      "outputs": [
        {
          "internalType": "address[]",
          "name": "",
          "type": "address[]"
        },
        {
          "internalType": "string[]",
          "name": "",
          "type": "string[]"
        }
      ],
      "stateMutability": "view",
      "type": "function"
    },
    {
      "inputs": [
        {
          "internalType": "address",
          "name": "tier2Address",
          "type": "address"
        },
        {
          "internalType": "address",
          "name": "tokenAddress",
          "type": "address"
        }
      ],
      "name": "getAPR",
      "outputs": [
        {
          "internalType": "uint256",
          "name": "",
          "type": "uint256"
        }
      ],
      "stateMutability": "view",
      "type": "function"
    },
    {
      "inputs": [
        {
          "internalType": "uint256",
          "name": "optionIndex",
          "type": "uint256"
        }
      ],
      "name": "getTotalValueLockedAggregated",
      "outputs": [
        {
          "internalType": "uint256",
          "name": "",
          "type": "uint256"
        }
      ],
      "stateMutability": "view",
      "type": "function"
    },
    {
      "inputs": [
        {
          "internalType": "address",
          "name": "tokenAddress",
          "type": "address"
        },
        {
          "internalType": "address",
          "name": "tier2Address",
          "type": "address"
        }
      ],
      "name": "getTotalValueLockedInternalByToken",
      "outputs": [
        {
          "internalType": "uint256",
          "name": "",
          "type": "uint256"
        }
      ],
      "stateMutability": "view",
      "type": "function"
    },
    {
      "inputs": [
        {
          "internalType": "address",
          "name": "tokenAddress",
          "type": "address"
        },
        {
          "internalType": "address",
          "name": "userAddress",
          "type": "address"
        },
        {
          "internalType": "address",
          "name": "tier2Address",
          "type": "address"
        }
      ],
      "name": "getAmountStakedByUser",
      "outputs": [
        {
          "internalType": "uint256",
          "name": "",
          "type": "uint256"
        }
      ],
      "stateMutability": "view",
      "type": "function"
    },
    {
      "inputs": [
        {
          "internalType": "address",
          "name": "userAddress",
          "type": "address"
        },
        {
          "internalType": "address",
          "name": "tokenAddress",
          "type": "address"
        },
        {
          "internalType": "address",
          "name": "tier2FarmAddress",
          "type": "address"
        }
      ],
      "name": "getUserCurrentReward",
      "outputs": [
        {
          "internalType": "uint256",
          "name": "",
          "type": "uint256"
        }
      ],
      "stateMutability": "view",
      "type": "function"
    },
    {
      "inputs": [
        {
          "internalType": "address",
          "name": "tokenAddress",
          "type": "address"
        }
      ],
      "name": "getTokenPrice",
      "outputs": [
        {
          "internalType": "uint256",
          "name": "",
          "type": "uint256"
        }
      ],
      "stateMutability": "view",
      "type": "function"
    },
    {
      "inputs": [
        {
          "internalType": "address",
          "name": "userAddress",
          "type": "address"
        },
        {
          "internalType": "address",
          "name": "tokenAddress",
          "type": "address"
        }
      ],
      "name": "getUserWalletBalance",
      "outputs": [
        {
          "internalType": "uint256",
          "name": "",
          "type": "uint256"
        }
      ],
      "stateMutability": "view",
      "type": "function"
    },
    {
      "inputs": [
        {
          "internalType": "address",
          "name": "newAddress",
          "type": "address"
        }
      ],
      "name": "updateWETHAddress",
      "outputs": [
        {
          "internalType": "bool",
          "name": "",
          "type": "bool"
        }
      ],
      "stateMutability": "nonpayable",
      "type": "function"
    },
    {
      "inputs": [
        {
          "internalType": "address",
          "name": "token",
          "type": "address"
        },
        {
          "internalType": "uint256",
          "name": "amount",
          "type": "uint256"
        },
        {
          "internalType": "address payable",
          "name": "destination",
          "type": "address"
        }
      ],
      "name": "adminEmergencyWithdrawAccidentallyDepositedTokens",
      "outputs": [
        {
          "internalType": "bool",
          "name": "",
          "type": "bool"
        }
      ],
      "stateMutability": "nonpayable",
      "type": "function"
    }
  ],
  "bytecode": "0x6080604052600680546001600160a01b031990811690915560088054821673c02aaa39b223fe8d0a0e5c4f27ead9083c756cc217908190556009805483166001600160a01b03929092169190911790556c0c9f2c9cd04674edea40000000600a556007805490911633179055610088731d17f9007282f9388bc9037688ade4344b2cc49b610093565b506001600b55610139565b6007546000906001600160a01b031633146100c95760405162461bcd60e51b81526004016100c0906100f7565b60405180910390fd5b50600180546001600160a01b0383166001600160a01b03199182168117835560058054909216179055919050565b60208082526022908201527f4f6e6c79206f776e65722063616e2063616c6c20746869732066756e6374696f604082015261371760f11b606082015260800190565b6119a1806101486000396000f3fe60806040526004361061014a5760003560e01c8063a6f9dae1116100b6578063d3e231ce1161006f578063d3e231ce1461036a578063d7b4be241461038a578063e6f307d41461039f578063ebbf95e1146103bf578063f4e0d9ac146103e2578063fd13b292146104025761014a565b8063a6f9dae1146102cd578063a89ae4ba146102ed578063b1a3a5c414610302578063ccdf114b14610322578063ce45332614610335578063d02641a01461034a5761014a565b806339008cf71161010857806339008cf7146102235780634c69c00f14610243578063579a7e1a146102635780635a73b0bf1461028557806378a0d759146102985780638da5cb5b146102b85761014a565b8062684fd11461014c57806309bf2e7514610182578063241b0b49146101af5780632a48ac9a146101cf5780632aaa5d2b146101e257806331f46d0d14610203575b005b34801561015857600080fd5b5061016c610167366004611180565b610417565b60405161017991906116ad565b60405180910390f35b34801561018e57600080fd5b506101a261019d3660046111d4565b61047b565b60405161017991906118b6565b3480156101bb57600080fd5b5061016c6101ca366004611341565b61050d565b61016c6101dd36600461145a565b610623565b6101f56101f036600461125e565b6108ad565b6040516101799291906115b3565b34801561020f57600080fd5b506101a261021e3660046111d4565b610a8a565b34801561022f57600080fd5b506101a261023e36600461119c565b610b17565b34801561024f57600080fd5b5061016c61025e366004611180565b610b4e565b34801561026f57600080fd5b50610278610bae565b604051610179919061157b565b61016c61029336600461145a565b610bbd565b3480156102a457600080fd5b506101a26102b336600461119c565b610c9d565b3480156102c457600080fd5b50610278610cd4565b3480156102d957600080fd5b5061016c6102e8366004611180565b610ce3565b3480156102f957600080fd5b50610278610d35565b34801561030e57600080fd5b506101a261031d3660046114dc565b610d44565b6101a261033036600461121e565b610dd0565b34801561034157600080fd5b50610278610eed565b34801561035657600080fd5b506101a2610365366004611180565b610efc565b34801561037657600080fd5b506101a261038536600461119c565b610f31565b34801561039657600080fd5b50610278610f68565b3480156103ab57600080fd5b5061016c6103ba366004611180565b610f77565b3480156103cb57600080fd5b506103d4610fd2565b60405161017992919061163d565b3480156103ee57600080fd5b5061016c6103fd366004611180565b61106d565b34801561040e57600080fd5b506102786110cd565b6007546000906001600160a01b0316331461044d5760405162461bcd60e51b8152600401610444906116f4565b60405180910390fd5b600880546001600160a01b039093166001600160a01b03199384168117909155600980549093161790915590565b6003546040516309bf2e7560e01b815260009182916001600160a01b03909116906309bf2e75906104b4908890889088906004016115e6565b60206040518083038186803b1580156104cc57600080fd5b505afa1580156104e0573d6000803e3d6000fd5b505050506040513d601f19601f8201168201806040525081019061050491906114f4565b95945050505050565b6007546000906001600160a01b0316331461053a5760405162461bcd60e51b8152600401610444906116f4565b6006546001600160a01b038581169116141561058c576040516001600160a01b0383169084156108fc029085906000818181858888f19350505050158015610586573d6000803e3d6000fd5b50610619565b60405163a9059cbb60e01b815284906001600160a01b0382169063a9059cbb906105bc90869088906004016115b3565b602060405180830381600087803b1580156105d657600080fd5b505af11580156105ea573d6000803e3d6000fd5b505050506040513d601f19601f8201168201806040525081019061060e919061143a565b61061757600080fd5b505b5060019392505050565b60006002600b5414156106485760405162461bcd60e51b81526004016104449061187f565b6002600b556006546000906001600160a01b03858116911614156106e657600960009054906101000a90046001600160a01b03166001600160a01b031663d0e30db0346040518263ffffffff1660e01b81526004016000604051808303818588803b1580156106b657600080fd5b505af11580156106ca573d6000803e3d6000fd5b50506008546001600160a01b0316965086935061076d92505050565b506040516323b872dd60e01b815283906001600160a01b038216906323b872dd906107199033903090889060040161158f565b602060405180830381600087803b15801561073357600080fd5b505af1158015610747573d6000803e3d6000fd5b505050506040513d601f19601f8201168201806040525081019061076b919061143a565b505b600254600a5460405163095ea7b360e01b81526001600160a01b038481169363095ea7b3936107a39392909116916004016115b3565b602060405180830381600087803b1580156107bd57600080fd5b505af11580156107d1573d6000803e3d6000fd5b505050506040513d601f19601f820116820180604052508101906107f5919061143a565b506004805460405163040ee4e360e11b81526000926001600160a01b039092169163081dc9c69161082e918a918a918a913391016116b8565b602060405180830381600087803b15801561084857600080fd5b505af115801561085c573d6000803e3d6000fd5b505050506040513d601f19601f82011682018060405250810190610880919061143a565b90508061089f5760405162461bcd60e51b8152600401610444906117a6565b6001600b5595945050505050565b60065460009081906001600160a01b03868116911614610969576040516323b872dd60e01b815285906001600160a01b038216906323b872dd906108f99033903090899060040161158f565b602060405180830381600087803b15801561091357600080fd5b505af1158015610927573d6000803e3d6000fd5b505050506040513d601f19601f8201168201806040525081019061094b919061143a565b6109675760405162461bcd60e51b815260040161044490611736565b505b6005546040516393d31e0160e01b815260009182916001600160a01b03909116906393d31e019034906109a4908b908b908b90600401611609565b60408051808303818588803b1580156109bc57600080fd5b505af11580156109d0573d6000803e3d6000fd5b50505050506040513d601f19601f820116820180604052508101906109f59190611314565b60405163a9059cbb60e01b8152919350915082906001600160a01b0382169063a9059cbb90610a2a90339086906004016115b3565b602060405180830381600087803b158015610a4457600080fd5b505af1158015610a58573d6000803e3d6000fd5b505050506040513d601f19601f82011682018060405250810190610a7c919061143a565b509197909650945050505050565b6003546040516331f46d0d60e01b81526000916001600160a01b0316906331f46d0d90610abf908790879087906004016115e6565b60206040518083038186803b158015610ad757600080fd5b505afa158015610aeb573d6000803e3d6000fd5b505050506040513d601f19601f82011682018060405250810190610b0f91906114f4565b949350505050565b6003546040516339008cf760e01b815260009182916001600160a01b03909116906339008cf790610abf90879087906004016115cc565b6007546000906001600160a01b03163314610b7b5760405162461bcd60e51b8152600401610444906116f4565b50600080546001600160a01b0383166001600160a01b031991821681179092556003805490911690911790556001919050565b6008546001600160a01b031681565b60006002600b541415610be25760405162461bcd60e51b81526004016104449061187f565b6002600b55600480546040516362a3381160e01b81526000926001600160a01b03909216916362a3381191610c1f918991899189913391016116b8565b602060405180830381600087803b158015610c3957600080fd5b505af1158015610c4d573d6000803e3d6000fd5b505050506040513d601f19601f82011682018060405250810190610c71919061143a565b905080610c905760405162461bcd60e51b815260040161044490611811565b6001600b55949350505050565b6003546040516378a0d75960e01b815260009182916001600160a01b03909116906378a0d75990610abf90879087906004016115cc565b6007546001600160a01b031681565b6007546000906001600160a01b03163314610d105760405162461bcd60e51b8152600401610444906116f4565b50600780546001600160a01b0383166001600160a01b03199091161790556001919050565b6000546001600160a01b031681565b600354604051632c68e97160e21b815260009182916001600160a01b039091169063b1a3a5c490610d799086906004016118b6565b60206040518083038186803b158015610d9157600080fd5b505afa158015610da5573d6000803e3d6000fd5b505050506040513d601f19601f82011682018060405250810190610dc991906114f4565b9392505050565b600554604051638cc7104f60e01b815260009182916001600160a01b0390911690638cc7104f903490610e0b9089908990899060040161158f565b6020604051808303818588803b158015610e2457600080fd5b505af1158015610e38573d6000803e3d6000fd5b50505050506040513d601f19601f82011682018060405250810190610e5d91906114f4565b60405163a9059cbb60e01b815290915084906001600160a01b0382169063a9059cbb90610e9090339086906004016115b3565b602060405180830381600087803b158015610eaa57600080fd5b505af1158015610ebe573d6000803e3d6000fd5b505050506040513d601f19601f82011682018060405250810190610ee2919061143a565b509095945050505050565b6001546001600160a01b031681565b600354604051630681320d60e51b815260009182916001600160a01b039091169063d02641a090610d7990869060040161157b565b6003546040516369f118e760e11b815260009182916001600160a01b039091169063d3e231ce90610abf90879087906004016115cc565b6002546001600160a01b031681565b6007546000906001600160a01b03163314610fa45760405162461bcd60e51b8152600401610444906116f4565b50600180546001600160a01b0383166001600160a01b03199182168117835560058054909216179055919050565b606080606080600360009054906101000a90046001600160a01b03166001600160a01b031663ebbf95e16040518163ffffffff1660e01b815260040160006040518083038186803b15801561102657600080fd5b505afa15801561103a573d6000803e3d6000fd5b505050506040513d6000823e601f3d908101601f191682016040526110629190810190611377565b909450925050509091565b6007546000906001600160a01b0316331461109a5760405162461bcd60e51b8152600401610444906116f4565b50600280546001600160a01b0383166001600160a01b031991821681179092556004805490911690911790556001919050565b6006546001600160a01b031681565b600082601f8301126110ec578081fd5b81516110ff6110fa826118e3565b6118bf565b818152915060208083019084810160005b84811015611175578151870188603f82011261112b57600080fd5b8381015161113b6110fa82611901565b81815260408b8184860101111561115157600080fd5b61116083888401838701611923565b50865250509282019290820190600101611110565b505050505092915050565b600060208284031215611191578081fd5b8135610dc981611953565b600080604083850312156111ae578081fd5b82356111b981611953565b915060208301356111c981611953565b809150509250929050565b6000806000606084860312156111e8578081fd5b83356111f381611953565b9250602084013561120381611953565b9150604084013561121381611953565b809150509250925092565b600080600060608486031215611232578283fd5b833561123d81611953565b9250602084013561124d81611953565b929592945050506040919091013590565b600080600060608486031215611272578283fd5b833561127d81611953565b925060208481013567ffffffffffffffff811115611299578384fd5b8501601f810187136112a9578384fd5b80356112b76110fa826118e3565b81815283810190838501858402850186018b10156112d3578788fd5b8794505b838510156112fe5780356112ea81611953565b8352600194909401939185019185016112d7565b5096999698505050506040949094013593505050565b60008060408385031215611326578182fd5b825161133181611953565b6020939093015192949293505050565b600080600060608486031215611355578283fd5b833561136081611953565b925060208401359150604084013561121381611953565b60008060408385031215611389578182fd5b825167ffffffffffffffff808211156113a0578384fd5b818501915085601f8301126113b3578384fd5b81516113c16110fa826118e3565b80828252602080830192508086018a8283870289010111156113e1578889fd5b8896505b8487101561140c5780516113f881611953565b8452600196909601959281019281016113e5565b508801519096509350505080821115611423578283fd5b50611430858286016110dc565b9150509250929050565b60006020828403121561144b578081fd5b81518015158114610dc9578182fd5b60008060006060848603121561146e578081fd5b833567ffffffffffffffff811115611484578182fd5b8401601f81018613611494578182fd5b80356114a26110fa82611901565b8181528760208385010111156114b6578384fd5b816020840160208301378360208383010152809550505050602084013561124d81611953565b6000602082840312156114ed578081fd5b5035919050565b600060208284031215611505578081fd5b5051919050565b6000815180845260208085019450808401835b838110156115445781516001600160a01b03168752958201959082019060010161151f565b509495945050505050565b60008151808452611567816020860160208601611923565b601f01601f19169290920160200192915050565b6001600160a01b0391909116815260200190565b6001600160a01b039384168152919092166020820152604081019190915260600190565b6001600160a01b03929092168252602082015260400190565b6001600160a01b0392831681529116602082015260400190565b6001600160a01b0393841681529183166020830152909116604082015260600190565b6001600160a01b038416815260606020820181905260009061162d9083018561150c565b9050826040830152949350505050565b600060408252611650604083018561150c565b602083820381850152818551808452828401915082838202850101838801865b8381101561169e57601f1987840301855261168c83835161154f565b94860194925090850190600101611670565b50909998505050505050505050565b901515815260200190565b6000608082526116cb608083018761154f565b6001600160a01b0395861660208401526040830194909452509216606090920191909152919050565b60208082526022908201527f4f6e6c79206f776e65722063616e2063616c6c20746869732066756e6374696f604082015261371760f11b606082015260800190565b6020808252604a908201527f596f75206d75737420617070726f7665207468697320636f6e7472616374206f60408201527f72206861766520656e6f75676820746f6b656e7320746f20646f20746869732060608201526931b7b73b32b939b4b7b760b11b608082015260a00190565b60208082526045908201527f54686572652077617320616e20697373756520696e20636f726520776974682060408201527f796f7572206465706f73697420726571756573742e20506c6561736520736565606082015264206c6f677360d81b608082015260a00190565b60208082526048908201527f54686572652077617320616e20697373756520696e20636f726520776974682060408201527f796f7572207769746864726177616c20726571756573742e20506c6561736520606082015267736565206c6f677360c01b608082015260a00190565b6020808252601f908201527f5265656e7472616e637947756172643a207265656e7472616e742063616c6c00604082015260600190565b90815260200190565b60405181810167ffffffffffffffff811182821017156118db57fe5b604052919050565b600067ffffffffffffffff8211156118f757fe5b5060209081020190565b600067ffffffffffffffff82111561191557fe5b50601f01601f191660200190565b60005b8381101561193e578181015183820152602001611926565b8381111561194d576000848401525b50505050565b6001600160a01b038116811461196857600080fd5b5056fea264697066735822122017cd3a8b38495fe7bb53fbb8d0e1fc7654567f9c58fd7f2ac0aba535b62ca5e364736f6c63430007040033",
  "immutableReferences": {},
  "source": "pragma solidity 0.7.4;\npragma experimental ABIEncoderV2;\n//Core contract on Mainnet: 0x7a72b2C51670a3D77d4205C2DB90F6ddb09E4303\n\ninterface Oracle {\n  function getTotalValueLockedInternalByToken(address tokenAddress, address tier2Address) external view returns (uint256);\n  function getTotalValueLockedAggregated(uint256 optionIndex) external view returns (uint256);\n  function getStakableTokens() view external  returns (address[] memory, string[] memory);\n  function getAPR ( address tier2Address, address tokenAddress ) external view returns ( uint256 );\n  function getAmountStakedByUser(address tokenAddress, address userAddress, address tier2Address) external view returns(uint256);\n  function getUserCurrentReward(address userAddress, address tokenAddress, address tier2FarmAddress) view external returns(uint256);\n  function getTokenPrice(address tokenAddress) view external returns(uint256);\n  function getUserWalletBalance(address userAddress, address tokenAddress) external view returns (uint256);\n}\ninterface Tier1Staking {\n  function deposit ( string memory tier2ContractName, address tokenAddress, uint256 amount, address onBehalfOf ) external payable returns ( bool );\n  function withdraw ( string memory tier2ContractName, address tokenAddress, uint256 amount, address onBehalfOf ) external payable returns ( bool );\n}\n\ninterface Converter {\n  function unwrap ( address sourceToken, address destinationToken, uint256 amount ) external payable returns ( uint256 );\n  function wrap ( address sourceToken, address[] memory destinationTokens, uint256 amount ) external payable returns ( address, uint256 );\n}\ninterface ERC20 {\n    function totalSupply() external view returns(uint supply);\n\n    function balanceOf(address _owner) external view returns(uint balance);\n\n    function transfer(address _to, uint _value) external returns(bool success);\n\n    function transferFrom(address _from, address _to, uint _value) external returns(bool success);\n\n    function approve(address _spender, uint _value) external returns(bool success);\n\n    function allowance(address _owner, address _spender) external view returns(uint remaining);\n\n    function decimals() external view returns(uint digits);\n    event Approval(address indexed _owner, address indexed _spender, uint _value);\n    function deposit() external payable;\n\n    function withdraw(uint256 wad) external;\n}\n\n\ncontract Core{\n\n    //globals\n    address public oracleAddress;\n    address public converterAddress;\n    address public stakingAddress;\n    Oracle oracle;\n    Tier1Staking staking;\n    Converter converter;\n    address public ETH_TOKEN_PLACEHOLDER_ADDRESS  = address(0x0);\n    address payable public owner;\n    address public WETH_TOKEN_ADDRESS = 0xC02aaA39b223FE8D0A0e5C4F27eAD9083C756Cc2;\n    ERC20 wethToken = ERC20(WETH_TOKEN_ADDRESS);\n    uint256 approvalAmount = 1000000000000000000000000000000;\n\n    //Reeentrancy\n     uint256 private constant _NOT_ENTERED = 1;\n    uint256 private constant _ENTERED = 2;\n    uint256 private _status;\n\n\n\n    modifier onlyOwner {\n           require(\n               msg.sender == owner,\n               \"Only owner can call this function.\"\n           );\n           _;\n   }\n   modifier nonReentrant() {\n        // On the first call to nonReentrant, _notEntered will be true\n        require(_status != _ENTERED, \"ReentrancyGuard: reentrant call\");\n\n        // Any calls to nonReentrant after this point will fail\n        _status = _ENTERED;\n\n        _;\n\n        // By storing the original value once again, a refund is triggered (see\n        // https://eips.ethereum.org/EIPS/eip-2200)\n        _status = _NOT_ENTERED;\n    }\n\n\n  constructor() public payable {\n        owner= msg.sender;\n        setConverterAddress(0x1d17F9007282F9388bc9037688ADE4344b2cC49B);\n        _status = _NOT_ENTERED;\n  }\n\n  fallback() external payable {\n      //for the converter to unwrap ETH when delegate calling. The contract has to be able to accept ETH for this reason. The emergency withdrawal call is to pick any change up for these conversions.\n  }\n\n  function setOracleAddress(address theAddress) public onlyOwner returns(bool){\n    oracleAddress = theAddress;\n    oracle = Oracle(theAddress);\n    return true;\n  }\n\n  function setStakingAddress(address theAddress) public onlyOwner returns(bool){\n    stakingAddress = theAddress;\n    staking = Tier1Staking(theAddress);\n    return true;\n  }\n  function setConverterAddress(address theAddress) public onlyOwner returns(bool){\n    converterAddress = theAddress;\n    converter = Converter(theAddress);\n    return true;\n  }\n\n\n  function changeOwner(address payable newOwner) onlyOwner public returns (bool){\n    owner = newOwner;\n    return true;\n  }\n\n  function deposit(string memory tier2ContractName, address tokenAddress, uint256 amount) nonReentrant() payable public returns (bool){\n\n        ERC20 token;\n       if(tokenAddress==ETH_TOKEN_PLACEHOLDER_ADDRESS){\n                wethToken.deposit{value:msg.value}();\n                tokenAddress=WETH_TOKEN_ADDRESS;\n                token = ERC20(tokenAddress);\n        }\n        else{\n            token = ERC20(tokenAddress);\n            token.transferFrom(msg.sender, address(this), amount);\n        }\n       token.approve(stakingAddress, approvalAmount);\n       bool result = staking.deposit(tier2ContractName, tokenAddress, amount, msg.sender);\n       require(result, \"There was an issue in core with your deposit request. Please see logs\");\n        return result;\n\n  }\n\n  function withdraw(string memory tier2ContractName, address tokenAddress, uint256 amount) nonReentrant() payable public returns(bool){\n      bool result = staking.withdraw(tier2ContractName, tokenAddress, amount, msg.sender);\n        require(result, \"There was an issue in core with your withdrawal request. Please see logs\");\n        return result;\n  }\n\n  function convert(address sourceToken, address[] memory destinationTokens, uint256 amount) public payable returns(address, uint256){\n\n        if(sourceToken != ETH_TOKEN_PLACEHOLDER_ADDRESS){\n            ERC20 token = ERC20(sourceToken);\n            require(token.transferFrom(msg.sender, address(this), amount), \"You must approve this contract or have enough tokens to do this conversion\");\n        }\n\n        ( address destinationTokenAddress, uint256 _amount) = converter.wrap{value:msg.value}(sourceToken, destinationTokens, amount);\n\n        ERC20 token = ERC20(destinationTokenAddress);\n        token.transfer(msg.sender, _amount);\n        return (destinationTokenAddress, _amount);\n\n  }\n\n    //deconverting is mostly for LP tokens back to another token, as these cant be simply swapped on uniswap\n  function deconvert(address sourceToken, address destinationToken, uint256 amount) public payable returns(uint256){\n       uint256 _amount = converter.unwrap{value:msg.value}(sourceToken, destinationToken, amount);\n       ERC20 token = ERC20(destinationToken);\n        token.transfer(msg.sender, _amount);\n       return _amount;\n  }\n\n  function getStakableTokens() view public  returns (address[] memory, string[] memory){\n\n        (address [] memory stakableAddresses, string [] memory stakableTokenNames) = oracle.getStakableTokens();\n        return (stakableAddresses, stakableTokenNames);\n\n  }\n\n\n\n  function getAPR(address tier2Address, address tokenAddress) public view returns(uint256){\n\n     uint256 result = oracle.getAPR(tier2Address, tokenAddress);\n     return result;\n   }\n\n   function getTotalValueLockedAggregated(uint256 optionIndex) public view returns (uint256){\n      uint256 result = oracle.getTotalValueLockedAggregated(optionIndex);\n      return result;\n   }\n\n   function getTotalValueLockedInternalByToken(address tokenAddress, address tier2Address) public view returns (uint256){\n      uint256 result = oracle.getTotalValueLockedInternalByToken( tokenAddress, tier2Address);\n      return result;\n   }\n\n   function getAmountStakedByUser(address tokenAddress, address userAddress, address tier2Address) public view returns(uint256){\n        uint256 result = oracle.getAmountStakedByUser(tokenAddress, userAddress,  tier2Address);\n        return result;\n   }\n\n   function getUserCurrentReward(address userAddress, address tokenAddress, address tier2FarmAddress) view public returns(uint256){\n        return oracle.getUserCurrentReward( userAddress,  tokenAddress, tier2FarmAddress);\n   }\n\n   function getTokenPrice(address tokenAddress) view public returns(uint256){\n        uint256 result = oracle.getTokenPrice(tokenAddress);\n        return result;\n   }\n\n    function getUserWalletBalance(address userAddress, address tokenAddress) public view returns (uint256){\n        uint256 result = oracle.getUserWalletBalance( userAddress, tokenAddress);\n        return result;\n\n    }\n\n    function updateWETHAddress(address newAddress) onlyOwner public returns(bool){\n        WETH_TOKEN_ADDRESS = newAddress;\n        wethToken= ERC20(newAddress);\n    }\n\n    function adminEmergencyWithdrawAccidentallyDepositedTokens(address token, uint amount, address payable destination) public onlyOwner returns(bool) {\n\n         if (address(token) == ETH_TOKEN_PLACEHOLDER_ADDRESS) {\n             destination.transfer(amount);\n         }\n         else {\n             ERC20 tokenToken = ERC20(token);\n             require(tokenToken.transfer(destination, amount));\n         }\n\n         return true;\n     }\n\n\n}\n",
  "sourcePath": "/Users/mulish/Desktop/plexus/contracts/contracts/core.sol",
  "compiler": {
    "name": "solc",
    "version": "0.7.4+commit.3f05b770.Emscripten.clang"
  },
  "schemaVersion": "3.3.4",
  "updatedAt": "2021-03-02T13:04:30.436Z",
  "devdoc": {
    "kind": "dev",
    "methods": {},
    "version": 1
  },
  "userdoc": {
    "kind": "user",
    "methods": {},
    "version": 1
  }
}