{
  "contractName": "Tier1FarmController",
  "abi": [
    {
      "inputs": [],
      "stateMutability": "payable",
      "type": "constructor"
    },
    {
      "stateMutability": "payable",
      "type": "fallback"
    },
    {
      "inputs": [],
      "name": "admin",
      "outputs": [
        {
          "internalType": "address payable",
          "name": "",
          "type": "address"
        }
      ],
      "stateMutability": "view",
      "type": "function"
    },
    {
      "inputs": [],
      "name": "commission",
      "outputs": [
        {
          "internalType": "uint256",
          "name": "",
          "type": "uint256"
        }
      ],
      "stateMutability": "view",
      "type": "function"
    },
    {
      "inputs": [],
      "name": "farmName",
      "outputs": [
        {
          "internalType": "string",
          "name": "",
          "type": "string"
        }
      ],
      "stateMutability": "view",
      "type": "function"
    },
    {
      "inputs": [],
      "name": "owner",
      "outputs": [
        {
          "internalType": "address payable",
          "name": "",
          "type": "address"
        }
      ],
      "stateMutability": "view",
      "type": "function"
    },
    {
      "inputs": [
        {
          "internalType": "string",
          "name": "",
          "type": "string"
        }
      ],
      "name": "tier2StakingContracts",
      "outputs": [
        {
          "internalType": "address",
          "name": "",
          "type": "address"
        }
      ],
      "stateMutability": "view",
      "type": "function"
    },
    {
      "inputs": [
        {
          "internalType": "address",
          "name": "newOracleAddress",
          "type": "address"
        }
      ],
      "name": "updateOracleAddress",
      "outputs": [
        {
          "internalType": "bool",
          "name": "",
          "type": "bool"
        }
      ],
      "stateMutability": "nonpayable",
      "type": "function"
    },
    {
      "inputs": [
        {
          "internalType": "string",
          "name": "name",
          "type": "string"
        },
        {
          "internalType": "address",
          "name": "stakingAddress",
          "type": "address"
        }
      ],
      "name": "addOrEditTier2ChildStakingContract",
      "outputs": [
        {
          "internalType": "bool",
          "name": "",
          "type": "bool"
        }
      ],
      "stateMutability": "nonpayable",
      "type": "function"
    },
    {
      "inputs": [
        {
          "internalType": "address",
          "name": "tier2Contract",
          "type": "address"
        },
        {
          "internalType": "string",
          "name": "name",
          "type": "string"
        },
        {
          "internalType": "address",
          "name": "stakingAddress",
          "type": "address"
        },
        {
          "internalType": "address",
          "name": "stakingToken",
          "type": "address"
        }
      ],
      "name": "addOrEditTier2ChildsChildStakingContract",
      "outputs": [
        {
          "internalType": "bool",
          "name": "",
          "type": "bool"
        }
      ],
      "stateMutability": "nonpayable",
      "type": "function"
    },
    {
      "inputs": [
        {
          "internalType": "address",
          "name": "tier2Contract",
          "type": "address"
        },
        {
          "internalType": "uint256",
          "name": "amount",
          "type": "uint256"
        }
      ],
      "name": "updateCommissionTier2",
      "outputs": [
        {
          "internalType": "bool",
          "name": "",
          "type": "bool"
        }
      ],
      "stateMutability": "nonpayable",
      "type": "function"
    },
    {
      "inputs": [
        {
          "internalType": "string",
          "name": "tier2ContractName",
          "type": "string"
        },
        {
          "internalType": "address",
          "name": "tokenAddress",
          "type": "address"
        },
        {
          "internalType": "uint256",
          "name": "amount",
          "type": "uint256"
        },
        {
          "internalType": "address payable",
          "name": "onBehalfOf",
          "type": "address"
        }
      ],
      "name": "deposit",
      "outputs": [
        {
          "internalType": "bool",
          "name": "",
          "type": "bool"
        }
      ],
      "stateMutability": "payable",
      "type": "function"
    },
    {
      "inputs": [
        {
          "internalType": "string",
          "name": "tier2ContractName",
          "type": "string"
        },
        {
          "internalType": "address",
          "name": "tokenAddress",
          "type": "address"
        },
        {
          "internalType": "uint256",
          "name": "amount",
          "type": "uint256"
        },
        {
          "internalType": "address payable",
          "name": "onBehalfOf",
          "type": "address"
        }
      ],
      "name": "withdraw",
      "outputs": [
        {
          "internalType": "bool",
          "name": "",
          "type": "bool"
        }
      ],
      "stateMutability": "payable",
      "type": "function"
    },
    {
      "inputs": [
        {
          "internalType": "address payable",
          "name": "tier2Contract",
          "type": "address"
        },
        {
          "internalType": "address payable",
          "name": "newOwner",
          "type": "address"
        }
      ],
      "name": "changeTier2Owner",
      "outputs": [
        {
          "internalType": "bool",
          "name": "",
          "type": "bool"
        }
      ],
      "stateMutability": "nonpayable",
      "type": "function"
    },
    {
      "inputs": [
        {
          "internalType": "address payable",
          "name": "newOwner",
          "type": "address"
        }
      ],
      "name": "changeOwner",
      "outputs": [
        {
          "internalType": "bool",
          "name": "",
          "type": "bool"
        }
      ],
      "stateMutability": "nonpayable",
      "type": "function"
    },
    {
      "inputs": [
        {
          "internalType": "address payable",
          "name": "tier2Contract",
          "type": "address"
        },
        {
          "internalType": "address",
          "name": "token",
          "type": "address"
        },
        {
          "internalType": "uint256",
          "name": "amount",
          "type": "uint256"
        },
        {
          "internalType": "address payable",
          "name": "destination",
          "type": "address"
        }
      ],
      "name": "adminEmergencyWithdrawTokensTier2",
      "outputs": [
        {
          "internalType": "bool",
          "name": "",
          "type": "bool"
        }
      ],
      "stateMutability": "nonpayable",
      "type": "function"
    },
    {
      "inputs": [
        {
          "internalType": "address",
          "name": "token",
          "type": "address"
        },
        {
          "internalType": "uint256",
          "name": "amount",
          "type": "uint256"
        },
        {
          "internalType": "address payable",
          "name": "destination",
          "type": "address"
        }
      ],
      "name": "adminEmergencyWithdrawTokens",
      "outputs": [
        {
          "internalType": "bool",
          "name": "",
          "type": "bool"
        }
      ],
      "stateMutability": "nonpayable",
      "type": "function"
    },
    {
      "inputs": [
        {
          "internalType": "string",
          "name": "tier2ContractName",
          "type": "string"
        },
        {
          "internalType": "address",
          "name": "_owner",
          "type": "address"
        },
        {
          "internalType": "address",
          "name": "tokenAddress",
          "type": "address"
        }
      ],
      "name": "getStakedPoolBalanceByUser",
      "outputs": [
        {
          "internalType": "uint256",
          "name": "",
          "type": "uint256"
        }
      ],
      "stateMutability": "view",
      "type": "function"
    },
    {
      "inputs": [
        {
          "internalType": "string",
          "name": "tier2ContractName",
          "type": "string"
        },
        {
          "internalType": "address",
          "name": "_owner",
          "type": "address"
        },
        {
          "internalType": "address",
          "name": "token",
          "type": "address"
        }
      ],
      "name": "getDepositBalanceByUser",
      "outputs": [
        {
          "internalType": "uint256",
          "name": "",
          "type": "uint256"
        }
      ],
      "stateMutability": "view",
      "type": "function"
    },
    {
      "inputs": [],
      "name": "kill",
      "outputs": [],
      "stateMutability": "nonpayable",
      "type": "function"
    }
  ],
  "bytecode": "0x600280546001600160a01b031916905561019060045560c0604052600f60808190526e2a34b2b918a0b3b3b932b3b0ba37b960891b60a090815262000048916007919062000140565b5060408051634641524d60e01b815260036004820152905190819003602401902080546001600160a01b031990811673618fdcff3cca243c12e6b508d9d8a6ff9018325c179091556000805490911633179055620000ba73bdff00110c97d0fe7fefbb78ce254b12b9a7f41f620000c1565b50620001ec565b600080546001600160a01b031633146200010d5760405162461bcd60e51b815260040180806020018281038252602281526020018062001b486022913960400191505060405180910390fd5b50600680546001600160a01b0383166001600160a01b031991821681179092556005805490911690911790556001919050565b828054600181600116156101000203166002900490600052602060002090601f016020900481019282620001785760008555620001c3565b82601f106200019357805160ff1916838001178555620001c3565b82800160010185558215620001c3579182015b82811115620001c3578251825591602001919060010190620001a6565b50620001d1929150620001d5565b5090565b5b80821115620001d15760008155600101620001d6565b61194c80620001fc6000396000f3fe6080604052600436106101095760003560e01c8063a6f9dae111610095578063d97694a711610064578063d97694a71461077e578063e14891911461080a578063e31b9c831461081f578063f7023bb614610858578063f851a4401461088b57610109565b8063a6f9dae1146105f6578063a853419114610629578063c1a962b81461066c578063c735a13a146106a757610109565b806362a33811116100dc57806362a33811146103365780636a554c72146103f25780638420c912146104cb57806384b7fdd3146105985780638da5cb5b146105e157610109565b806303e781031461010b578063081dc9c6146101955780633f83e5971461026557806341c0e1b514610321575b005b34801561011757600080fd5b506101206108a0565b6040805160208082528351818301528351919283929083019185019080838360005b8381101561015a578181015183820152602001610142565b50505050905090810190601f1680156101875780820380516001836020036101000a031916815260200191505b509250505060405180910390f35b610251600480360360808110156101ab57600080fd5b810190602081018135600160201b8111156101c557600080fd5b8201836020820111156101d757600080fd5b803590602001918460018302840111600160201b831117156101f857600080fd5b91908080601f016020809104026020016040519081016040528093929190818152602001838380828437600092019190915250929550506001600160a01b038335811694506020840135936040013516915061092e9050565b604080519115158252519081900360200190f35b34801561027157600080fd5b506102516004803603604081101561028857600080fd5b810190602081018135600160201b8111156102a257600080fd5b8201836020820111156102b457600080fd5b803590602001918460018302840111600160201b831117156102d557600080fd5b91908080601f016020809104026020016040519081016040528093929190818152602001838380828437600092019190915250929550505090356001600160a01b03169150610d6a9050565b34801561032d57600080fd5b50610109610e3c565b6102516004803603608081101561034c57600080fd5b810190602081018135600160201b81111561036657600080fd5b82018360208201111561037857600080fd5b803590602001918460018302840111600160201b8311171561039957600080fd5b91908080601f016020809104026020016040519081016040528093929190818152602001838380828437600092019190915250929550506001600160a01b0383358116945060208401359360400135169150610e939050565b3480156103fe57600080fd5b506104b96004803603606081101561041557600080fd5b810190602081018135600160201b81111561042f57600080fd5b82018360208201111561044157600080fd5b803590602001918460018302840111600160201b8311171561046257600080fd5b91908080601f016020809104026020016040519081016040528093929190818152602001838380828437600092019190915250929550506001600160a01b03833581169450602090930135909216915061114a9050565b60408051918252519081900360200190f35b3480156104d757600080fd5b5061057c600480360360208110156104ee57600080fd5b810190602081018135600160201b81111561050857600080fd5b82018360208201111561051a57600080fd5b803590602001918460018302840111600160201b8311171561053b57600080fd5b91908080601f016020809104026020016040519081016040528093929190818152602001838380828437600092019190915250929550611237945050505050565b604080516001600160a01b039092168252519081900360200190f35b3480156105a457600080fd5b50610251600480360360808110156105bb57600080fd5b506001600160a01b0381358116916020810135821691604082013591606001351661125d565b3480156105ed57600080fd5b5061057c61133a565b34801561060257600080fd5b506102516004803603602081101561061957600080fd5b50356001600160a01b0316611349565b34801561063557600080fd5b506102516004803603606081101561064c57600080fd5b506001600160a01b038135811691602081013591604090910135166113b8565b34801561067857600080fd5b506102516004803603604081101561068f57600080fd5b506001600160a01b03813581169160200135166114e8565b3480156106b357600080fd5b50610251600480360360808110156106ca57600080fd5b6001600160a01b038235169190810190604081016020820135600160201b8111156106f457600080fd5b82018360208201111561070657600080fd5b803590602001918460018302840111600160201b8311171561072757600080fd5b91908080601f016020809104026020016040519081016040528093929190818152602001838380828437600092019190915250929550506001600160a01b0383358116945060209093013590921691506115b49050565b34801561078a57600080fd5b506104b9600480360360608110156107a157600080fd5b810190602081018135600160201b8111156107bb57600080fd5b8201836020820111156107cd57600080fd5b803590602001918460018302840111600160201b831117156107ee57600080fd5b91935091506001600160a01b03813581169160200135166116bf565b34801561081657600080fd5b506104b9611776565b34801561082b57600080fd5b506102516004803603604081101561084257600080fd5b506001600160a01b03813516906020013561177c565b34801561086457600080fd5b506102516004803603602081101561087b57600080fd5b50356001600160a01b0316611811565b34801561089757600080fd5b5061057c61188e565b6007805460408051602060026001851615610100026000190190941693909304601f810184900484028201840190925281815292918301828280156109265780601f106108fb57610100808354040283529160200191610926565b820191906000526020600020905b81548152906001019060200180831161090957829003601f168201915b505050505081565b6005546040805163bf40fac160e01b815260206004808301829052602483015263434f524560e01b604483015291516000936001600160a01b03169263bf40fac19260648082019391829003018186803b15801561098b57600080fd5b505afa15801561099f573d6000803e3d6000fd5b505050506040513d60208110156109b557600080fd5b50516001600160a01b031633146109fd5760405162461bcd60e51b81526004018080602001828103825260228152602001806118c56022913960400191505060405180910390fd5b60006003866040518082805190602001908083835b60208310610a315780518252601f199092019160209182019101610a12565b51815160209384036101000a6000190180199092169116179052920194855250604080519485900382018520546323b872dd60e01b8652336004870152306024870152604486018a905290516001600160a01b0391821696508a9591861694506323b872dd9350606480830193928290030181600087803b158015610ab557600080fd5b505af1158015610ac9573d6000803e3d6000fd5b505050506040513d6020811015610adf57600080fd5b5051610b1c5760405162461bcd60e51b81526004018080602001828103825260308152602001806118e76030913960400191505060405180910390fd5b6001600160a01b03811663095ea7b383610b3788606461189d565b6040518363ffffffff1660e01b815260040180836001600160a01b0316815260200182815260200192505050602060405180830381600087803b158015610b7d57600080fd5b505af1158015610b91573d6000803e3d6000fd5b505050506040513d6020811015610ba757600080fd5b505060408051633d14d1b760e21b81526001600160a01b0388811660048301526024820188905286811660448301529151849283169163f45346dc9160648083019260209291908290030181600087803b158015610c0457600080fd5b505af1158015610c18573d6000803e3d6000fd5b505050506040513d6020811015610c2e57600080fd5b50506005546040805163bf40fac160e01b815260206004820181905260076024830152665245574152445360c81b604483015291516000936001600160a01b03169263bf40fac19260648082019391829003018186803b158015610c9157600080fd5b505afa158015610ca5573d6000803e3d6000fd5b505050506040513d6020811015610cbb57600080fd5b505190506001600160a01b03811615610d5b57604080516315d70ee160e31b8152600481018990526001600160a01b038a8116602483015288811660448301529151839283169163aeb877089160648083019260209291908290030181600087803b158015610d2957600080fd5b505af1925050508015610d4e57506040513d6020811015610d4957600080fd5b505160015b610d5757610d59565b505b505b50600198975050505050505050565b600080546001600160a01b03163314610db45760405162461bcd60e51b81526004018080602001828103825260228152602001806118c56022913960400191505060405180910390fd5b816003846040518082805190602001908083835b60208310610de75780518252601f199092019160209182019101610dc8565b51815160209384036101000a6000190180199092169116179052920194855250604051938490030190922080546001600160a01b0319166001600160a01b039490941693909317909255506001949350505050565b6000546001600160a01b03163314610e855760405162461bcd60e51b81526004018080602001828103825260228152602001806118c56022913960400191505060405180910390fd5b6000546001600160a01b0316ff5b6005546040805163bf40fac160e01b815260206004808301829052602483015263434f524560e01b604483015291516000936001600160a01b03169263bf40fac19260648082019391829003018186803b158015610ef057600080fd5b505afa158015610f04573d6000803e3d6000fd5b505050506040513d6020811015610f1a57600080fd5b50516001600160a01b03163314610f625760405162461bcd60e51b81526004018080602001828103825260228152602001806118c56022913960400191505060405180910390fd5b60006003866040518082805190602001908083835b60208310610f965780518252601f199092019160209182019101610f77565b51815160209384036101000a600019018019909216911617905292019485525060408051948590038201852054631a4ca37b60e21b86526001600160a01b038b81166004880152602487018b9052898116604488015291519116955089948694508493506369328dec9260648083019391928290030181600087803b15801561101e57600080fd5b505af1158015611032573d6000803e3d6000fd5b505050506040513d602081101561104857600080fd5b50506005546040805163bf40fac160e01b815260206004820181905260076024830152665245574152445360c81b604483015291516000936001600160a01b03169263bf40fac19260648082019391829003018186803b1580156110ab57600080fd5b505afa1580156110bf573d6000803e3d6000fd5b505050506040513d60208110156110d557600080fd5b505190506001600160a01b03811615610d5b5760408051636f81b0e760e11b8152600481018990526001600160a01b03888116602483018190528b8216604484015260648301529151839283169163df0361ce9160848083019260209291908290030181600087803b158015610d2957600080fd5b6000806003856040518082805190602001908083835b6020831061117f5780518252601f199092019160209182019101611160565b51815160209384036101000a60001901801990921691161790529201948552506040805194859003820185205463222d5ad960e01b86526001600160a01b038a811660048801528981166024880152915191169550879486945060009350849263222d5ad992604480840193829003018186803b1580156111ff57600080fd5b505afa158015611213573d6000803e3d6000fd5b505050506040513d602081101561122957600080fd5b505198975050505050505050565b80516020818301810180516003825292820191909301209152546001600160a01b031681565b600080546001600160a01b031633146112a75760405162461bcd60e51b81526004018080602001828103825260228152602001806118c56022913960400191505060405180910390fd5b6040805163a853419160e01b81526001600160a01b0386811660048301526024820186905284811660448301529151879283169163a85341919160648083019260209291908290030181600087803b15801561130257600080fd5b505af1158015611316573d6000803e3d6000fd5b505050506040513d602081101561132c57600080fd5b506001979650505050505050565b6000546001600160a01b031681565b600080546001600160a01b031633146113935760405162461bcd60e51b81526004018080602001828103825260228152602001806118c56022913960400191505060405180910390fd5b50600080546001600160a01b0383166001600160a01b03199091161790556001919050565b600080546001600160a01b031633146114025760405162461bcd60e51b81526004018080602001828103825260228152602001806118c56022913960400191505060405180910390fd5b6002546001600160a01b0385811691161415611454576040516001600160a01b0383169084156108fc029085906000818181858888f1935050505015801561144e573d6000803e3d6000fd5b506114de565b6040805163a9059cbb60e01b81526001600160a01b038481166004830152602482018690529151869283169163a9059cbb9160448083019260209291908290030181600087803b1580156114a757600080fd5b505af11580156114bb573d6000803e3d6000fd5b505050506040513d60208110156114d157600080fd5b50516114dc57600080fd5b505b5060019392505050565b600080546001600160a01b031633146115325760405162461bcd60e51b81526004018080602001828103825260228152602001806118c56022913960400191505060405180910390fd5b6040805163a6f9dae160e01b81526001600160a01b0384811660048301529151859283169163a6f9dae19160248083019260209291908290030181600087803b15801561157e57600080fd5b505af1158015611592573d6000803e3d6000fd5b505050506040513d60208110156115a857600080fd5b50600195945050505050565b600080546001600160a01b031633146115fe5760405162461bcd60e51b81526004018080602001828103825260228152602001806118c56022913960400191505060405180910390fd5b604051633f7784a160e01b81526001600160a01b0384811660248301528381166044830152606060048301908152865160648401528651889392841692633f7784a19289928992899291829160840190602087019080838360005b83811015611671578181015183820152602001611659565b50505050905090810190601f16801561169e5780820380516001836020036101000a031916815260200191505b50945050505050602060405180830381600087803b15801561130257600080fd5b6000806003868660405180838380828437919091019485525050604080516020948190038501812054637aeceb1f60e11b82526001600160a01b038a811660048401528981166024840152925192169550879486945060009350849263f5d9d63e926044808201939291829003018186803b15801561173d57600080fd5b505afa158015611751573d6000803e3d6000fd5b505050506040513d602081101561176757600080fd5b50519998505050505050505050565b60045481565b600080546001600160a01b031633146117c65760405162461bcd60e51b81526004018080602001828103825260228152602001806118c56022913960400191505060405180910390fd5b6000839050806001600160a01b0316639d55fba7846040518263ffffffff1660e01b815260040180828152602001915050602060405180830381600087803b15801561157e57600080fd5b600080546001600160a01b0316331461185b5760405162461bcd60e51b81526004018080602001828103825260228152602001806118c56022913960400191505060405180910390fd5b50600680546001600160a01b0383166001600160a01b031991821681179092556005805490911690911790556001919050565b6001546001600160a01b031681565b60008282028315806118b75750828482816118b457fe5b04145b6118bd57fe5b939250505056fe4f6e6c79206f776e65722063616e2063616c6c20746869732066756e6374696f6e2e4e6f7420656e6f75676820746f6b656e7320746f207472616e7366657246726f6d206f72206e6f20617070726f76616ca2646970667358221220b0ca54993e6ab27092b2fa6ee7f628b69dd14ff2c000570be692bf7d42a2c5b764736f6c634300070400334f6e6c79206f776e65722063616e2063616c6c20746869732066756e6374696f6e2e",
  "immutableReferences": {},
  "source": "// SPDX-License-Identifier: MIT\n//Mainnet: 0x97b00db19bAe93389ba652845150CAdc597C6B2F\npragma solidity >=0.4.22 <0.8.0;\n\ninterface ERC20 {\n    function totalSupply() external view returns(uint supply);\n\n    function balanceOf(address _owner) external view returns(uint balance);\n\n    function transfer(address _to, uint _value) external returns(bool success);\n\n    function transferFrom(address _from, address _to, uint _value) external returns(bool success);\n\n    function approve(address _spender, uint _value) external returns(bool success);\n\n    function allowance(address _owner, address _spender) external view returns(uint remaining);\n\n    function decimals() external view returns(uint digits);\n    event Approval(address indexed _owner, address indexed _spender, uint _value);\n}\n\n\ninterface Tier2StakingInterface {\n\n  //staked balance info\n  function depositBalances(address _owner, address token) external view returns(uint256 balance);\n  function getStakedBalances(address _owner, address token) external view returns(uint256 balance);\n  function getStakedPoolBalanceByUser(address _owner, address tokenAddress) external view returns(uint256);\n\n  //basic info\n  function tokenToFarmMapping(address tokenAddress) external view returns(address stakingContractAddress);\n  function stakingContracts(string calldata platformName) external view returns(address stakingAddress);\n  function stakingContractsStakingToken(string calldata platformName) external view returns(address tokenAddress);\n  function platformToken() external view returns(address tokenAddress);\n  function owner() external view returns(address ownerAddress);\n\n  //actions\n  function deposit(address tokenAddress, uint256 amount, address onBehalfOf) payable external returns (bool);\n  function withdraw(address tokenAddress, uint256 amount, address payable onBehalfOf) payable external returns(bool);\n  function addOrEditStakingContract(string calldata name, address stakingAddress, address stakingToken ) external  returns (bool);\n  function updateCommission(uint amount) external  returns(bool);\n  function changeOwner(address payable newOwner) external returns (bool);\n  function adminEmergencyWithdrawTokens(address token, uint amount, address payable destination) external returns(bool);\n  function kill() virtual external;\n}\ninterface Oracle {\n  function getAddress(string memory) view external returns (address);\n\n}\n\ninterface Rewards {\n  function unstakeAndClaimDelegated(uint256 amount, address onBehalfOf, address tokenAddress, address recipient) external returns (uint256);\n  function stakeDelegated(uint256 amount, address tokenAddress, address onBehalfOf) external returns(bool);\n\n}\n\n\n\n\nlibrary SafeMath {\n  function mul(uint256 a, uint256 b) internal view returns (uint256) {\n    uint256 c = a * b;\n    assert(a == 0 || c / a == b);\n    return c;\n  }\n\n  function div(uint256 a, uint256 b) internal view returns (uint256) {\n    assert(b > 0); // Solidity automatically throws when dividing by 0\n    uint256 c = a / b;\n    assert(a == b * c + a % b); // There is no case in which this doesn't hold\n    return c;\n  }\n\n\n\n  function sub(uint256 a, uint256 b) internal view returns (uint256) {\n    assert(b <= a);\n    return a - b;\n  }\n\n  function add(uint256 a, uint256 b) internal view returns (uint256) {\n    uint256 c = a + b;\n    assert(c >= a);\n    return c;\n  }\n\n}\n\n\n\n\n\ncontract Tier1FarmController{\n\n  using SafeMath\n    for uint256;\n\n\n  address payable public owner;\n  address payable public admin;\n  address ETH_TOKEN_ADDRESS  = address(0x0);\n  mapping (string => address) public tier2StakingContracts;\n  uint256 public commission  = 400; // Default is 4 percent\n    Oracle oracle;\n    address oracleAddress;\n\n  string public farmName = 'Tier1Aggregator';\n  mapping (address => uint256) totalAmountStaked;\n\n  modifier onlyOwner {\n         require(\n             msg.sender == owner,\n             \"Only owner can call this function.\"\n         );\n         _;\n }\n\n modifier onlyAdmin {\n         require(\n             msg.sender == oracle.getAddress(\"CORE\"),\n             \"Only owner can call this function.\"\n         );\n         _;\n }\n\n\n\n\n\n\n  constructor() public payable {\n        tier2StakingContracts[\"FARM\"] = 0x618fDCFF3Cca243c12E6b508D9d8a6fF9018325c;\n\n        owner= msg.sender;\n        updateOracleAddress(0xBDfF00110c97D0FE7Fefbb78CE254B12B9A7f41f);\n\n  }\n\n\n  fallback() external payable {\n\n\n  }\n\nfunction updateOracleAddress(address newOracleAddress ) public onlyOwner returns (bool){\n    oracleAddress= newOracleAddress;\n    oracle = Oracle(newOracleAddress);\n    return true;\n\n  }\n\n\n  function addOrEditTier2ChildStakingContract(string memory name, address stakingAddress ) public onlyOwner returns (bool){\n\n    tier2StakingContracts[name] = stakingAddress;\n    return true;\n\n  }\n\n  function addOrEditTier2ChildsChildStakingContract(address tier2Contract, string memory name, address stakingAddress, address stakingToken ) public onlyOwner returns (bool){\n\n    Tier2StakingInterface tier2Con = Tier2StakingInterface(tier2Contract);\n    tier2Con.addOrEditStakingContract(name, stakingAddress, stakingToken);\n    return true;\n\n  }\n\n  function updateCommissionTier2(address tier2Contract, uint amount) public onlyOwner returns(bool){\n    Tier2StakingInterface tier2Con = Tier2StakingInterface(tier2Contract);\n    tier2Con.updateCommission(amount);\n    return true;\n  }\n\n\n\n\n\n  function deposit(string memory tier2ContractName, address tokenAddress, uint256 amount, address payable onBehalfOf) onlyAdmin payable public returns (bool){\n\n    address tier2Contract = tier2StakingContracts[tier2ContractName];\n    ERC20 thisToken = ERC20(tokenAddress);\n    require(thisToken.transferFrom(msg.sender, address(this), amount), \"Not enough tokens to transferFrom or no approval\");\n    //approve the tier2 contract to handle tokens from this account\n    thisToken.approve(tier2Contract, amount.mul(100));\n\n    Tier2StakingInterface tier2Con = Tier2StakingInterface(tier2Contract);\n\n    tier2Con.deposit(tokenAddress, amount, onBehalfOf);\n\n    address  rewardsContract = oracle.getAddress(\"REWARDS\");\n\n    if(rewardsContract != address(0x0)){\n        Rewards rewards = Rewards(rewardsContract);\n         try rewards.stakeDelegated(amount, tokenAddress, onBehalfOf) {\n\n        }\n        catch{\n\n        }\n    }\n\n\n\n      return true;\n   }\n\n\n\n\n\n\n  function withdraw(string memory tier2ContractName, address tokenAddress, uint256 amount, address payable onBehalfOf) onlyAdmin payable public returns(bool){\n\n        address tier2Contract = tier2StakingContracts[tier2ContractName];\n        ERC20 thisToken = ERC20(tokenAddress);\n        Tier2StakingInterface tier2Con = Tier2StakingInterface(tier2Contract);\n        tier2Con.withdraw(tokenAddress, amount, onBehalfOf);\n        address rewardsContract = oracle.getAddress(\"REWARDS\");\n          if(rewardsContract != address(0x0)){\n            Rewards rewards = Rewards(rewardsContract);\n\n           try rewards.unstakeAndClaimDelegated(amount, onBehalfOf, tokenAddress, onBehalfOf){\n\n           }\n           catch{\n\n           }\n\n          }\n     return true;\n   }\n\n\n   function changeTier2Owner(address payable tier2Contract, address payable newOwner) onlyOwner public returns (bool){\n     Tier2StakingInterface tier2Con = Tier2StakingInterface(tier2Contract);\n     tier2Con.changeOwner(newOwner);\n     return true;\n   }\n\n   function changeOwner(address payable newOwner) onlyOwner public returns (bool){\n     owner = newOwner;\n     return true;\n   }\n\n   //admin can deposit and withdraw and should be the core contract\n\n   /*\n   function changeAdmin(address payable newAdmin) onlyAdmin public returns (bool){\n     admin = newAdmin;\n     return true;\n   }\n   */\n\n\n\n\n  function adminEmergencyWithdrawTokensTier2(address payable tier2Contract, address token, uint amount, address payable destination) public onlyOwner returns(bool) {\n    Tier2StakingInterface tier2Con = Tier2StakingInterface(tier2Contract);\n    tier2Con.adminEmergencyWithdrawTokens(token, amount, destination);\n    return true;\n  }\n\n  function adminEmergencyWithdrawTokens(address token, uint amount, address payable destination) public onlyOwner returns(bool) {\n\n\n\n      if (address(token) == ETH_TOKEN_ADDRESS) {\n          destination.transfer(amount);\n      }\n      else {\n          ERC20 tokenToken = ERC20(token);\n          require(tokenToken.transfer(destination, amount));\n      }\n\n\n\n\n      return true;\n  }\n\n\n\nfunction getStakedPoolBalanceByUser(string memory tier2ContractName, address _owner, address tokenAddress) public view returns(uint256){\n  address tier2Contract = tier2StakingContracts[tier2ContractName];\n  ERC20 thisToken = ERC20(tokenAddress);\n  Tier2StakingInterface tier2Con = Tier2StakingInterface(tier2Contract);\n  uint balance = tier2Con.getStakedPoolBalanceByUser(_owner, tokenAddress);\n  return balance;\n\n}\n\nfunction getDepositBalanceByUser(string calldata tier2ContractName, address _owner, address token) external view returns(uint256 ){\n  address tier2Contract = tier2StakingContracts[tier2ContractName];\n  ERC20 thisToken = ERC20(token);\n  Tier2StakingInterface tier2Con = Tier2StakingInterface(tier2Contract);\n  uint balance = tier2Con.depositBalances(_owner, token);\n  return balance;\n}\n\n\n function kill() virtual public onlyOwner {\n\n         selfdestruct(owner);\n\n }\n\n\n\n\n\n\n\n}\n",
  "sourcePath": "/Users/mulish/Desktop/plexus/contracts/contracts/tier1Staking.sol",
  "compiler": {
    "name": "solc",
    "version": "0.7.4+commit.3f05b770.Emscripten.clang"
  },
  "schemaVersion": "3.3.4",
  "updatedAt": "2021-03-02T13:04:30.549Z",
  "devdoc": {
    "kind": "dev",
    "methods": {},
    "version": 1
  },
  "userdoc": {
    "kind": "user",
    "methods": {},
    "version": 1
  }
}