{
  "contractName": "WrapAndUnWrapSushi",
  "abi": [
    {
      "inputs": [],
      "stateMutability": "payable",
      "type": "constructor"
    },
    {
      "stateMutability": "payable",
      "type": "fallback"
    },
    {
      "inputs": [],
      "name": "ETH_TOKEN_ADDRESS",
      "outputs": [
        {
          "internalType": "address",
          "name": "",
          "type": "address"
        }
      ],
      "stateMutability": "view",
      "type": "function"
    },
    {
      "inputs": [],
      "name": "WETH_TOKEN_ADDRESS",
      "outputs": [
        {
          "internalType": "address",
          "name": "",
          "type": "address"
        }
      ],
      "stateMutability": "view",
      "type": "function"
    },
    {
      "inputs": [],
      "name": "changeRecpientIsOwner",
      "outputs": [
        {
          "internalType": "bool",
          "name": "",
          "type": "bool"
        }
      ],
      "stateMutability": "view",
      "type": "function"
    },
    {
      "inputs": [],
      "name": "fee",
      "outputs": [
        {
          "internalType": "uint256",
          "name": "",
          "type": "uint256"
        }
      ],
      "stateMutability": "view",
      "type": "function"
    },
    {
      "inputs": [
        {
          "internalType": "address",
          "name": "",
          "type": "address"
        },
        {
          "internalType": "uint256",
          "name": "",
          "type": "uint256"
        }
      ],
      "name": "lpTokenAddressToPairs",
      "outputs": [
        {
          "internalType": "address",
          "name": "",
          "type": "address"
        }
      ],
      "stateMutability": "view",
      "type": "function"
    },
    {
      "inputs": [],
      "name": "maxfee",
      "outputs": [
        {
          "internalType": "uint256",
          "name": "",
          "type": "uint256"
        }
      ],
      "stateMutability": "view",
      "type": "function"
    },
    {
      "inputs": [],
      "name": "owner",
      "outputs": [
        {
          "internalType": "address payable",
          "name": "",
          "type": "address"
        }
      ],
      "stateMutability": "view",
      "type": "function"
    },
    {
      "inputs": [
        {
          "internalType": "address",
          "name": "",
          "type": "address"
        },
        {
          "internalType": "address",
          "name": "",
          "type": "address"
        },
        {
          "internalType": "uint256",
          "name": "",
          "type": "uint256"
        }
      ],
      "name": "presetPaths",
      "outputs": [
        {
          "internalType": "address",
          "name": "",
          "type": "address"
        }
      ],
      "stateMutability": "view",
      "type": "function"
    },
    {
      "inputs": [
        {
          "internalType": "string",
          "name": "",
          "type": "string"
        }
      ],
      "name": "stablecoins",
      "outputs": [
        {
          "internalType": "address",
          "name": "",
          "type": "address"
        }
      ],
      "stateMutability": "view",
      "type": "function"
    },
    {
      "inputs": [
        {
          "internalType": "address",
          "name": "sourceToken",
          "type": "address"
        },
        {
          "internalType": "address[]",
          "name": "destinationTokens",
          "type": "address[]"
        },
        {
          "internalType": "uint256",
          "name": "amount",
          "type": "uint256"
        }
      ],
      "name": "wrap",
      "outputs": [
        {
          "internalType": "address",
          "name": "",
          "type": "address"
        },
        {
          "internalType": "uint256",
          "name": "",
          "type": "uint256"
        }
      ],
      "stateMutability": "payable",
      "type": "function"
    },
    {
      "inputs": [
        {
          "internalType": "string",
          "name": "coinName",
          "type": "string"
        },
        {
          "internalType": "address",
          "name": "newAddress",
          "type": "address"
        }
      ],
      "name": "updateStableCoinAddress",
      "outputs": [
        {
          "internalType": "bool",
          "name": "",
          "type": "bool"
        }
      ],
      "stateMutability": "nonpayable",
      "type": "function"
    },
    {
      "inputs": [
        {
          "internalType": "address",
          "name": "sellToken",
          "type": "address"
        },
        {
          "internalType": "address",
          "name": "buyToken",
          "type": "address"
        },
        {
          "internalType": "address[]",
          "name": "newPath",
          "type": "address[]"
        }
      ],
      "name": "updatePresetPaths",
      "outputs": [
        {
          "internalType": "bool",
          "name": "",
          "type": "bool"
        }
      ],
      "stateMutability": "nonpayable",
      "type": "function"
    },
    {
      "inputs": [
        {
          "internalType": "bool",
          "name": "changeRecpientIsOwnerBool",
          "type": "bool"
        }
      ],
      "name": "updateChangeRecipientBool",
      "outputs": [
        {
          "internalType": "bool",
          "name": "",
          "type": "bool"
        }
      ],
      "stateMutability": "nonpayable",
      "type": "function"
    },
    {
      "inputs": [
        {
          "internalType": "address",
          "name": "sourceToken",
          "type": "address"
        },
        {
          "internalType": "address",
          "name": "destinationToken",
          "type": "address"
        },
        {
          "internalType": "uint256",
          "name": "amount",
          "type": "uint256"
        }
      ],
      "name": "unwrap",
      "outputs": [
        {
          "internalType": "uint256",
          "name": "",
          "type": "uint256"
        }
      ],
      "stateMutability": "payable",
      "type": "function"
    },
    {
      "inputs": [
        {
          "internalType": "address payable",
          "name": "newOwner",
          "type": "address"
        }
      ],
      "name": "updateOwnerAddress",
      "outputs": [
        {
          "internalType": "bool",
          "name": "",
          "type": "bool"
        }
      ],
      "stateMutability": "nonpayable",
      "type": "function"
    },
    {
      "inputs": [
        {
          "internalType": "address",
          "name": "newAddress",
          "type": "address"
        }
      ],
      "name": "updateSushiExchange",
      "outputs": [
        {
          "internalType": "bool",
          "name": "",
          "type": "bool"
        }
      ],
      "stateMutability": "nonpayable",
      "type": "function"
    },
    {
      "inputs": [
        {
          "internalType": "address",
          "name": "newAddress",
          "type": "address"
        }
      ],
      "name": "updateUniswapFactory",
      "outputs": [
        {
          "internalType": "bool",
          "name": "",
          "type": "bool"
        }
      ],
      "stateMutability": "nonpayable",
      "type": "function"
    },
    {
      "inputs": [
        {
          "internalType": "address",
          "name": "sellToken",
          "type": "address"
        },
        {
          "internalType": "address",
          "name": "buyToken",
          "type": "address"
        },
        {
          "internalType": "uint256",
          "name": "amount",
          "type": "uint256"
        }
      ],
      "name": "getBestPath",
      "outputs": [
        {
          "internalType": "address[]",
          "name": "",
          "type": "address[]"
        }
      ],
      "stateMutability": "view",
      "type": "function"
    },
    {
      "inputs": [
        {
          "internalType": "address[]",
          "name": "theAddresses",
          "type": "address[]"
        },
        {
          "internalType": "uint256",
          "name": "amount",
          "type": "uint256"
        }
      ],
      "name": "getPriceFromUniswap",
      "outputs": [
        {
          "internalType": "uint256[]",
          "name": "amounts1",
          "type": "uint256[]"
        }
      ],
      "stateMutability": "view",
      "type": "function"
    },
    {
      "inputs": [
        {
          "internalType": "address",
          "name": "token",
          "type": "address"
        },
        {
          "internalType": "uint256",
          "name": "amount",
          "type": "uint256"
        },
        {
          "internalType": "address payable",
          "name": "destination",
          "type": "address"
        }
      ],
      "name": "adminEmergencyWithdrawTokens",
      "outputs": [
        {
          "internalType": "bool",
          "name": "",
          "type": "bool"
        }
      ],
      "stateMutability": "nonpayable",
      "type": "function"
    },
    {
      "inputs": [
        {
          "internalType": "uint256",
          "name": "newFee",
          "type": "uint256"
        }
      ],
      "name": "setFee",
      "outputs": [
        {
          "internalType": "bool",
          "name": "",
          "type": "bool"
        }
      ],
      "stateMutability": "nonpayable",
      "type": "function"
    },
    {
      "inputs": [
        {
          "internalType": "uint256",
          "name": "newMax",
          "type": "uint256"
        }
      ],
      "name": "setMaxFee",
      "outputs": [
        {
          "internalType": "bool",
          "name": "",
          "type": "bool"
        }
      ],
      "stateMutability": "nonpayable",
      "type": "function"
    },
    {
      "inputs": [
        {
          "internalType": "address",
          "name": "lpAddress",
          "type": "address"
        },
        {
          "internalType": "address",
          "name": "token1",
          "type": "address"
        },
        {
          "internalType": "address",
          "name": "token2",
          "type": "address"
        }
      ],
      "name": "addLPPair",
      "outputs": [
        {
          "internalType": "bool",
          "name": "",
          "type": "bool"
        }
      ],
      "stateMutability": "nonpayable",
      "type": "function"
    },
    {
      "inputs": [
        {
          "internalType": "address",
          "name": "token1",
          "type": "address"
        },
        {
          "internalType": "address",
          "name": "token2",
          "type": "address"
        }
      ],
      "name": "getLPTokenByPair",
      "outputs": [
        {
          "internalType": "address",
          "name": "lpAddr",
          "type": "address"
        }
      ],
      "stateMutability": "view",
      "type": "function"
    },
    {
      "inputs": [
        {
          "internalType": "address",
          "name": "userAddress",
          "type": "address"
        },
        {
          "internalType": "address",
          "name": "tokenAddress",
          "type": "address"
        }
      ],
      "name": "getUserTokenBalance",
      "outputs": [
        {
          "internalType": "uint256",
          "name": "",
          "type": "uint256"
        }
      ],
      "stateMutability": "view",
      "type": "function"
    }
  ],
  "bytecode": "0x60806040819052600180546001600160a01b031990811690915560028054821673c02aaa39b223fe8d0a0e5c4f27ead9083c756cc217908190556003805483166001600160a01b039283161790556c0c9f2c9cd04674edea400000006004556b033b2e3c9fd0803ce800000060055560068054831673d9e1ce17f2641f24ae83637ab66a2cca9c378b9f1790819055600780548416735c69bee701ef814a2b6a3edd4b1652cb9cc5aa6f179081905560088054851692841692909217909155600980548416919092161790556000600e819055600f8190556244414960e81b8352600b60838190526023842080548416736b175474e89094c44da98b954eedeac495271d0f179055631554d11560e21b8452608481815260248086208054861673dac17f958d2ee523a2206206994597c13d831ec7179055635553444360e01b86529190529092208054821673a0b86991c6218b36c1d19d4a2e9eb0ce3606eb48179055600d805460ff1916905581541633179055614363806101836000396000f3fe6080604052600436106101665760003560e01c806393d31e01116100d1578063dac6be441161008a578063ddca3f4311610064578063ddca3f431461082c578063de3047ba14610841578063e2af413f14610856578063ee6cd05a1461091257610166565b8063dac6be44146106e9578063db7bdff614610722578063dd81f567146107e957610166565b806393d31e0114610445578063a85341911461051b578063ab86496c1461055e578063ae0d3f7214610591578063bd35d48a14610691578063c05cb691146106d457610166565b8063710e5d2f11610123578063710e5d2f1461031557806373f7a0ea1461033f57806373f8fd4b146103725780638af1d5bd146103bf5780638cc7104f146103fa5780638da5cb5b1461043057610166565b806312eff661146101685780631878d1f1146101af5780632db08e1b146101e0578063579a7e1a14610225578063631a982c1461023a57806369fe0e2d146102eb575b005b34801561017457600080fd5b5061019b6004803603602081101561018b57600080fd5b50356001600160a01b031661093e565b604080519115158252519081900360200190f35b3480156101bb57600080fd5b506101c46109bb565b604080516001600160a01b039092168252519081900360200190f35b3480156101ec57600080fd5b5061019b6004803603606081101561020357600080fd5b506001600160a01b0381358116916020810135821691604090910135166109ca565b34801561023157600080fd5b506101c4610a5f565b34801561024657600080fd5b506101c46004803603602081101561025d57600080fd5b810190602081018135600160201b81111561027757600080fd5b82018360208201111561028957600080fd5b803590602001918460018302840111600160201b831117156102aa57600080fd5b91908080601f016020809104026020016040519081016040528093929190818152602001838380828437600092019190915250929550610a6e945050505050565b3480156102f757600080fd5b5061019b6004803603602081101561030e57600080fd5b5035610a94565b34801561032157600080fd5b5061019b6004803603602081101561033857600080fd5b5035610b28565b34801561034b57600080fd5b5061019b6004803603602081101561036257600080fd5b50356001600160a01b0316610bba565b34801561037e57600080fd5b506103ad6004803603604081101561039557600080fd5b506001600160a01b0381358116916020013516610c37565b60408051918252519081900360200190f35b3480156103cb57600080fd5b506101c4600480360360408110156103e257600080fd5b506001600160a01b0381358116916020013516610cc0565b6103ad6004803603606081101561041057600080fd5b506001600160a01b03813581169160208101359091169060400135610d17565b34801561043c57600080fd5b506101c4611c83565b6104f86004803603606081101561045b57600080fd5b6001600160a01b038235169190810190604081016020820135600160201b81111561048557600080fd5b82018360208201111561049757600080fd5b803590602001918460208302840111600160201b831117156104b857600080fd5b9190808060200260200160405190810160405280939291908181526020018383602002808284376000920191909152509295505091359250611c92915050565b604080516001600160a01b03909316835260208301919091528051918290030190f35b34801561052757600080fd5b5061019b6004803603606081101561053e57600080fd5b506001600160a01b03813581169160208101359160409091013516612f74565b34801561056a57600080fd5b5061019b6004803603602081101561058157600080fd5b50356001600160a01b03166130a2565b34801561059d57600080fd5b50610641600480360360408110156105b457600080fd5b810190602081018135600160201b8111156105ce57600080fd5b8201836020820111156105e057600080fd5b803590602001918460208302840111600160201b8311171561060157600080fd5b9190808060200260200160405190810160405280939291908181526020018383602002808284376000920191909152509295505091359250613111915050565b60408051602080825283518183015283519192839290830191858101910280838360005b8381101561067d578181015183820152602001610665565b505050509050019250505060405180910390f35b34801561069d57600080fd5b506101c4600480360360608110156106b457600080fd5b506001600160a01b038135811691602081013590911690604001356132c7565b3480156106e057600080fd5b5061019b61330c565b3480156106f557600080fd5b506101c46004803603604081101561070c57600080fd5b506001600160a01b038135169060200135613315565b34801561072e57600080fd5b5061019b6004803603606081101561074557600080fd5b6001600160a01b038235811692602081013590911691810190606081016040820135600160201b81111561077857600080fd5b82018360208201111561078a57600080fd5b803590602001918460208302840111600160201b831117156107ab57600080fd5b91908080602002602001604051908101604052809392919081815260200183836020028082843760009201919091525092955061334d945050505050565b3480156107f557600080fd5b506106416004803603606081101561080c57600080fd5b506001600160a01b038135811691602081013590911690604001356133cc565b34801561083857600080fd5b506103ad613a28565b34801561084d57600080fd5b506103ad613a2e565b34801561086257600080fd5b5061019b6004803603604081101561087957600080fd5b810190602081018135600160201b81111561089357600080fd5b8201836020820111156108a557600080fd5b803590602001918460018302840111600160201b831117156108c657600080fd5b91908080601f016020809104026020016040519081016040528093929190818152602001838380828437600092019190915250929550505090356001600160a01b03169150613a349050565b34801561091e57600080fd5b5061019b6004803603602081101561093557600080fd5b50351515613b06565b600080546001600160a01b031633146109885760405162461bcd60e51b81526004018080602001828103825260228152602001806141646022913960400191505060405180910390fd5b50600980546001600160a01b0383166001600160a01b031991821681179092556007805490911690911790556001919050565b6001546001600160a01b031681565b600080546001600160a01b03163314610a145760405162461bcd60e51b81526004018080602001828103825260228152602001806141646022913960400191505060405180910390fd5b6040805180820182526001600160a01b0380861682528481166020808401919091529087166000908152600a90915291909120610a529160026140e9565b50600190505b9392505050565b6002546001600160a01b031681565b8051602081830181018051600b825292820191909301209152546001600160a01b031681565b600080546001600160a01b03163314610ade5760405162461bcd60e51b81526004018080602001828103825260228152602001806141646022913960400191505060405180910390fd5b600f54821115610b1f5760405162461bcd60e51b81526004018080602001828103825260378152602001806141c36037913960400191505060405180910390fd5b50600e55600190565b600080546001600160a01b03163314610b725760405162461bcd60e51b81526004018080602001828103825260228152602001806141646022913960400191505060405180910390fd5b600f5415610bb15760405162461bcd60e51b815260040180806020018281038252602e815260200180614300602e913960400191505060405180910390fd5b50600f55600190565b600080546001600160a01b03163314610c045760405162461bcd60e51b81526004018080602001828103825260228152602001806141646022913960400191505060405180910390fd5b50600880546001600160a01b0383166001600160a01b031991821681179092556006805490911690911790556001919050565b600080829050806001600160a01b03166370a08231856040518263ffffffff1660e01b815260040180826001600160a01b0316815260200191505060206040518083038186803b158015610c8a57600080fd5b505afa158015610c9e573d6000803e3d6000fd5b505050506040513d6020811015610cb457600080fd5b50519150505b92915050565b6009546040805163e6a4390560e01b81526001600160a01b038581166004830152848116602483015291516000938493169163e6a43905916044808301926020929190829003018186803b158015610c8a57600080fd5b600154600090839085906001600160a01b0380841691161415610d43576002546001600160a01b031694505b60015485906001600160a01b03888116911614610e1657604080516323b872dd60e01b81523360048201523060248201526044810187905290516001600160a01b038416916323b872dd9160648083019260209291908290030181600087803b158015610daf57600080fd5b505af1158015610dc3573d6000803e3d6000fd5b505050506040513d6020811015610dd957600080fd5b5051610e165760405162461bcd60e51b815260040180806020018281038252605f8152602001806142a1605f913960600191505060405180910390fd5b60008790506040518060400160405280826001600160a01b0316630dfe16816040518163ffffffff1660e01b815260040160206040518083038186803b158015610e5f57600080fd5b505afa158015610e73573d6000803e3d6000fd5b505050506040513d6020811015610e8957600080fd5b50516001600160a01b0390811682526040805163d21220a760e01b815290516020938401939286169263d21220a79260048082019391829003018186803b158015610ed357600080fd5b505afa158015610ee7573d6000803e3d6000fd5b505050506040513d6020811015610efd57600080fd5b50516001600160a01b0390811690915289166000908152600a60205260409020610f289160026140e9565b506001600160a01b0388166000908152600a602052604090205415611a3257610f52866002613b67565b60065460408051636eb1769f60e11b81523060048201526001600160a01b03928316602482015290519186169163dd62ed3e91604480820192602092909190829003018186803b158015610fa557600080fd5b505afa158015610fb9573d6000803e3d6000fd5b505050506040513d6020811015610fcf57600080fd5b5051101561106b576006546001600160a01b038085169163095ea7b39116610ff8896003613b67565b6040518363ffffffff1660e01b815260040180836001600160a01b0316815260200182815260200192505050602060405180830381600087803b15801561103e57600080fd5b505af1158015611052573d6000803e3d6000fd5b505050506040513d602081101561106857600080fd5b50505b6008546001600160a01b038981166000908152600a602052604081208054929093169263baa2abde9290919061109d57fe5b60009182526020808320909101546001600160a01b038d81168452600a9092526040909220805491909216919060019081106110d557fe5b6000918252602082200154600554604080516001600160e01b031960e088901b1681526001600160a01b039586166004820152949092166024850152604484018c905260648401839052608484018390523060a485015260c4840152805160e480850194929391928390030190829087803b15801561115357600080fd5b505af1158015611167573d6000803e3d6000fd5b505050506040513d604081101561117d57600080fd5b50506001600160a01b0388166000908152600a60205260408120805482906111a157fe5b60009182526020808320909101546001600160a01b038c81168452600a9092526040832080549290911693509060019081106111d957fe5b6000918252602080832090910154604080516370a0823160e01b815230600482015290516001600160a01b039283169550918616926370a0823192602480840193829003018186803b15801561122e57600080fd5b505afa158015611242573d6000803e3d6000fd5b505050506040513d602081101561125857600080fd5b5051604080516370a0823160e01b815230600482015290519192506000916001600160a01b038516916370a08231916024808301926020929190829003018186803b1580156112a657600080fd5b505afa1580156112ba573d6000803e3d6000fd5b505050506040513d60208110156112d057600080fd5b505190506112df826002613b67565b60065460408051636eb1769f60e11b81523060048201526001600160a01b03928316602482015290519187169163dd62ed3e91604480820192602092909190829003018186803b15801561133257600080fd5b505afa158015611346573d6000803e3d6000fd5b505050506040513d602081101561135c57600080fd5b505110156113f8576006546001600160a01b038086169163095ea7b39116611385856003613b67565b6040518363ffffffff1660e01b815260040180836001600160a01b0316815260200182815260200192505050602060405180830381600087803b1580156113cb57600080fd5b505af11580156113df573d6000803e3d6000fd5b505050506040513d60208110156113f557600080fd5b50505b611403816002613b67565b60065460408051636eb1769f60e11b81523060048201526001600160a01b03928316602482015290519186169163dd62ed3e91604480820192602092909190829003018186803b15801561145657600080fd5b505afa15801561146a573d6000803e3d6000fd5b505050506040513d602081101561148057600080fd5b5051101561151c576006546001600160a01b038085169163095ea7b391166114a9846003613b67565b6040518363ffffffff1660e01b815260040180836001600160a01b0316815260200182815260200192505050602060405180830381600087803b1580156114ef57600080fd5b505af1158015611503573d6000803e3d6000fd5b505050506040513d602081101561151957600080fd5b50505b6001600160a01b038c81166000908152600a602052604081208054928e169290919061154457fe5b6000918252602090912001546001600160a01b0316146115a1576001600160a01b038c166000908152600a60205260408120805461159f929061158357fe5b6000918252602090912001546001600160a01b03168c84613b87565b505b6001600160a01b038c81166000908152600a602052604090208054918d169160019081106115cb57fe5b6000918252602090912001546001600160a01b03161461162d576001600160a01b038c166000908152600a60205260409020805461162b9190600190811061160f57fe5b6000918252602090912001546001600160a01b03168c83613b87565b505b6000866001600160a01b03166370a08231306040518263ffffffff1660e01b815260040180826001600160a01b0316815260200191505060206040518083038186803b15801561167c57600080fd5b505afa158015611690573d6000803e3d6000fd5b505050506040513d60208110156116a657600080fd5b50516001549091506001600160a01b038a8116911614156117fd5760035460408051632e1a7d4d60e01b81526004810184905290516001600160a01b0390921691632e1a7d4d9160248082019260009290919082900301818387803b15801561170e57600080fd5b505af1158015611722573d6000803e3d6000fd5b505050506000600e5411156117ca57600061175461271061174e600e5447613b6790919063ffffffff16565b90613f27565b9050801561179757600080546040516001600160a01b039091169183156108fc02918491818181858888f19350505050158015611795573d6000803e3d6000fd5b505b60405133904780156108fc02916000818181858888f193505050501580156117c3573d6000803e3d6000fd5b50506117f8565b60405133904780156108fc02916000818181858888f193505050501580156117f6573d6000803e3d6000fd5b505b611a22565b600e54156119a657600061182261271061174e600e5485613b6790919063ffffffff16565b905080156118ae57600080546040805163a9059cbb60e01b81526001600160a01b039283166004820152602481018590529051918b169263a9059cbb926044808401936020939083900390910190829087803b15801561188157600080fd5b505af1158015611895573d6000803e3d6000fd5b505050506040513d60208110156118ab57600080fd5b50505b604080516370a0823160e01b815230600482015290516001600160a01b038a16916370a08231916024808301926020929190829003018186803b1580156118f457600080fd5b505afa158015611908573d6000803e3d6000fd5b505050506040513d602081101561191e57600080fd5b50516040805163a9059cbb60e01b81523360048201526024810183905290519193506001600160a01b038a169163a9059cbb916044808201926020929091908290030181600087803b15801561197357600080fd5b505af1158015611987573d6000803e3d6000fd5b505050506040513d602081101561199d57600080fd5b50611a22915050565b6040805163a9059cbb60e01b81523360048201526024810183905290516001600160a01b0389169163a9059cbb9160448083019260209291908290030181600087803b1580156119f557600080fd5b505af1158015611a09573d6000803e3d6000fd5b505050506040513d6020811015611a1f57600080fd5b50505b9850610a58975050505050505050565b611a3d866002613b67565b60065460408051636eb1769f60e11b81523060048201526001600160a01b03928316602482015290519186169163dd62ed3e91604480820192602092909190829003018186803b158015611a9057600080fd5b505afa158015611aa4573d6000803e3d6000fd5b505050506040513d6020811015611aba57600080fd5b50511015611b56576006546001600160a01b038085169163095ea7b39116611ae3896003613b67565b6040518363ffffffff1660e01b815260040180836001600160a01b0316815260200182815260200192505050602060405180830381600087803b158015611b2957600080fd5b505af1158015611b3d573d6000803e3d6000fd5b505050506040513d6020811015611b5357600080fd5b50505b866001600160a01b0316886001600160a01b031614611b7c57611b7a888888613b87565b505b6000826001600160a01b03166370a08231306040518263ffffffff1660e01b815260040180826001600160a01b0316815260200191505060206040518083038186803b158015611bcb57600080fd5b505afa158015611bdf573d6000803e3d6000fd5b505050506040513d6020811015611bf557600080fd5b50516040805163a9059cbb60e01b81523360048201526024810183905290519192506001600160a01b0385169163a9059cbb916044808201926020929091908290030181600087803b158015611c4a57600080fd5b505af1158015611c5e573d6000803e3d6000fd5b505050506040513d6020811015611c7457600080fd5b50909550610a58945050505050565b6000546001600160a01b031681565b6000806000859050600085600081518110611ca957fe5b60200260200101519050855160011415611fee576001546001600160a01b03888116911614611eb257604080516323b872dd60e01b81523360048201523060248201526044810187905290516001600160a01b038416916323b872dd9160648083019260209291908290030181600087803b158015611d2757600080fd5b505af1158015611d3b573d6000803e3d6000fd5b505050506040513d6020811015611d5157600080fd5b5051611d8e5760405162461bcd60e51b815260040180806020018281038252605381526020018061424e6053913960600191505060405180910390fd5b611d99856002613b67565b60065460408051636eb1769f60e11b81523060048201526001600160a01b03928316602482015290519185169163dd62ed3e91604480820192602092909190829003018186803b158015611dec57600080fd5b505afa158015611e00573d6000803e3d6000fd5b505050506040513d6020811015611e1657600080fd5b50511015611eb2576006546001600160a01b038084169163095ea7b39116611e3f886003613b67565b6040518363ffffffff1660e01b815260040180836001600160a01b0316815260200182815260200192505050602060405180830381600087803b158015611e8557600080fd5b505af1158015611e99573d6000803e3d6000fd5b505050506040513d6020811015611eaf57600080fd5b50505b611ed18787600081518110611ec357fe5b602002602001015187613b87565b506000816001600160a01b03166370a08231306040518263ffffffff1660e01b815260040180826001600160a01b0316815260200191505060206040518083038186803b158015611f2157600080fd5b505afa158015611f35573d6000803e3d6000fd5b505050506040513d6020811015611f4b57600080fd5b50516040805163a9059cbb60e01b81523360048201526024810183905290519192506001600160a01b0384169163a9059cbb916044808201926020929091908290030181600087803b158015611fa057600080fd5b505af1158015611fb4573d6000803e3d6000fd5b505050506040513d6020811015611fca57600080fd5b505086518790600090611fd957fe5b60200260200101518194509450505050612f6c565b6001546000906001600160a01b03898116911614156120845760025460408051630d0e30db60e41b815290516001600160a01b0390921691829163d0e30db091349160048082019260009290919082900301818588803b15801561205157600080fd5b505af1158015612065573d6000803e3d6000fd5b50506002546001600160a01b03169b503499508b965060019450505050505b6001546001600160a01b038981169116148015906120a0575080155b1561228557604080516323b872dd60e01b81523360048201523060248201526044810188905290516001600160a01b038516916323b872dd9160648083019260209291908290030181600087803b1580156120fa57600080fd5b505af115801561210e573d6000803e3d6000fd5b505050506040513d602081101561212457600080fd5b50516121615760405162461bcd60e51b81526004018080602001828103825260548152602001806141fa6054913960600191505060405180910390fd5b61216c866002613b67565b60065460408051636eb1769f60e11b81523060048201526001600160a01b03928316602482015290519186169163dd62ed3e91604480820192602092909190829003018186803b1580156121bf57600080fd5b505afa1580156121d3573d6000803e3d6000fd5b505050506040513d60208110156121e957600080fd5b50511015612285576006546001600160a01b038085169163095ea7b39116612212896003613b67565b6040518363ffffffff1660e01b815260040180836001600160a01b0316815260200182815260200192505050602060405180830381600087803b15801561225857600080fd5b505af115801561226c573d6000803e3d6000fd5b505050506040513d602081101561228257600080fd5b50505b60015487516001600160a01b039091169088906000906122a157fe5b60200260200101516001600160a01b031614156122f55760025487516001600160a01b039091169088906000906122d457fe5b60200260200101906001600160a01b031690816001600160a01b0316815250505b6001805488516001600160a01b03909116918991811061231157fe5b60200260200101516001600160a01b031614156123675760025487516001600160a01b03909116908890600190811061234657fe5b60200260200101906001600160a01b031690816001600160a01b0316815250505b8660008151811061237457fe5b60200260200101516001600160a01b0316886001600160a01b0316146123c8576123c688886000815181106123a557fe5b60200260200101516123c160028a613f2790919063ffffffff16565b613b87565b505b866001815181106123d557fe5b60200260200101516001600160a01b0316886001600160a01b0316146124085761240688886001815181106123a557fe5b505b60008760018151811061241757fe5b602002602001015190506000836001600160a01b03166370a08231306040518263ffffffff1660e01b815260040180826001600160a01b0316815260200191505060206040518083038186803b15801561247057600080fd5b505afa158015612484573d6000803e3d6000fd5b505050506040513d602081101561249a57600080fd5b5051604080516370a0823160e01b815230600482015290519192506000916001600160a01b038516916370a08231916024808301926020929190829003018186803b1580156124e857600080fd5b505afa1580156124fc573d6000803e3d6000fd5b505050506040513d602081101561251257600080fd5b50519050612521826002613b67565b60065460408051636eb1769f60e11b81523060048201526001600160a01b03928316602482015290519188169163dd62ed3e91604480820192602092909190829003018186803b15801561257457600080fd5b505afa158015612588573d6000803e3d6000fd5b505050506040513d602081101561259e57600080fd5b5051101561263a576006546001600160a01b038087169163095ea7b391166125c7856003613b67565b6040518363ffffffff1660e01b815260040180836001600160a01b0316815260200182815260200192505050602060405180830381600087803b15801561260d57600080fd5b505af1158015612621573d6000803e3d6000fd5b505050506040513d602081101561263757600080fd5b50505b612645816002613b67565b60065460408051636eb1769f60e11b81523060048201526001600160a01b03928316602482015290519186169163dd62ed3e91604480820192602092909190829003018186803b15801561269857600080fd5b505afa1580156126ac573d6000803e3d6000fd5b505050506040513d60208110156126c257600080fd5b5051101561275e576006546001600160a01b038085169163095ea7b391166126eb846003613b67565b6040518363ffffffff1660e01b815260040180836001600160a01b0316815260200182815260200192505050602060405180830381600087803b15801561273157600080fd5b505af1158015612745573d6000803e3d6000fd5b505050506040513d602081101561275b57600080fd5b50505b6008548a516000916001600160a01b03169063e8e33700908d90849061278057fe5b60200260200101518d60018151811061279557fe5b6020908102919091010151600554604080516001600160e01b031960e087901b1681526001600160a01b039485166004820152939092166024840152604483018890526064830187905260016084840181905260a48401523060c484015260e4830152516101048083019260609291908290030181600087803b15801561281b57600080fd5b505af115801561282f573d6000803e3d6000fd5b505050506040513d606081101561284557600080fd5b50604001516009548c519192506000916001600160a01b039091169063e6a43905908e90849061287157fe5b60200260200101518e60018151811061288657fe5b60200260200101516040518363ffffffff1660e01b815260040180836001600160a01b03168152602001826001600160a01b031681526020019250505060206040518083038186803b1580156128db57600080fd5b505afa1580156128ef573d6000803e3d6000fd5b505050506040513d602081101561290557600080fd5b5051604080518082019091528d51919250829181908f9060009061292557fe5b60200260200101516001600160a01b03166001600160a01b031681526020018e60018151811061295157fe5b6020908102919091018101516001600160a01b039081169092529084166000908152600a909152604090206129879160026140e9565b506000816001600160a01b03166370a08231306040518263ffffffff1660e01b815260040180826001600160a01b0316815260200191505060206040518083038186803b1580156129d757600080fd5b505afa1580156129eb573d6000803e3d6000fd5b505050506040513d6020811015612a0157600080fd5b5051600e5490915015612baf576000612a2b61271061174e600e5485613b6790919063ffffffff16565b90508015612ab757600080546040805163a9059cbb60e01b81526001600160a01b0392831660048201526024810185905290519186169263a9059cbb926044808401936020939083900390910190829087803b158015612a8a57600080fd5b505af1158015612a9e573d6000803e3d6000fd5b505050506040513d6020811015612ab457600080fd5b50505b604080516370a0823160e01b815230600482015290516001600160a01b038516916370a08231916024808301926020929190829003018186803b158015612afd57600080fd5b505afa158015612b11573d6000803e3d6000fd5b505050506040513d6020811015612b2757600080fd5b50516040805163a9059cbb60e01b81523360048201526024810183905290519193506001600160a01b0385169163a9059cbb916044808201926020929091908290030181600087803b158015612b7c57600080fd5b505af1158015612b90573d6000803e3d6000fd5b505050506040513d6020811015612ba657600080fd5b50612c2b915050565b6040805163a9059cbb60e01b81523360048201526024810183905290516001600160a01b0384169163a9059cbb9160448083019260209291908290030181600087803b158015612bfe57600080fd5b505af1158015612c12573d6000803e3d6000fd5b505050506040513d6020811015612c2857600080fd5b50505b600d54339060ff16151560011415612c4b57506000546001600160a01b03165b60008a6001600160a01b03166370a08231306040518263ffffffff1660e01b815260040180826001600160a01b0316815260200191505060206040518083038186803b158015612c9a57600080fd5b505afa158015612cae573d6000803e3d6000fd5b505050506040513d6020811015612cc457600080fd5b50511115612dd157896001600160a01b031663a9059cbb828c6001600160a01b03166370a08231306040518263ffffffff1660e01b815260040180826001600160a01b0316815260200191505060206040518083038186803b158015612d2957600080fd5b505afa158015612d3d573d6000803e3d6000fd5b505050506040513d6020811015612d5357600080fd5b5051604080516001600160e01b031960e086901b1681526001600160a01b03909316600484015260248301919091525160448083019260209291908290030181600087803b158015612da457600080fd5b505af1158015612db8573d6000803e3d6000fd5b505050506040513d6020811015612dce57600080fd5b50505b6000886001600160a01b03166370a08231306040518263ffffffff1660e01b815260040180826001600160a01b0316815260200191505060206040518083038186803b158015612e2057600080fd5b505afa158015612e34573d6000803e3d6000fd5b505050506040513d6020811015612e4a57600080fd5b50511115612f5757876001600160a01b031663a9059cbb828a6001600160a01b03166370a08231306040518263ffffffff1660e01b815260040180826001600160a01b0316815260200191505060206040518083038186803b158015612eaf57600080fd5b505afa158015612ec3573d6000803e3d6000fd5b505050506040513d6020811015612ed957600080fd5b5051604080516001600160e01b031960e086901b1681526001600160a01b03909316600484015260248301919091525160448083019260209291908290030181600087803b158015612f2a57600080fd5b505af1158015612f3e573d6000803e3d6000fd5b505050506040513d6020811015612f5457600080fd5b50505b50919a50909850612f6c975050505050505050565b935093915050565b600080546001600160a01b03163314612fbe5760405162461bcd60e51b81526004018080602001828103825260228152602001806141646022913960400191505060405180910390fd5b6001546001600160a01b0385811691161415613010576040516001600160a01b0383169084156108fc029085906000818181858888f1935050505015801561300a573d6000803e3d6000fd5b50613098565b6040805163a9059cbb60e01b81526001600160a01b038481166004830152602482018690529151869283169163a9059cbb9160448083019260209291908290030181600087803b15801561306357600080fd5b505af1158015613077573d6000803e3d6000fd5b505050506040513d602081101561308d57600080fd5b5051610a5257600080fd5b5060019392505050565b600080546001600160a01b031633146130ec5760405162461bcd60e51b81526004018080602001828103825260228152602001806141646022913960400191505060405180910390fd5b50600080546001600160a01b0383166001600160a01b03199091161790556001919050565b6008546040805163d06ca61f60e01b815260048101848152602482019283528551604483015285516060946001600160a01b03169363d06ca61f9387938993909291606401906020808601910280838360005b8381101561317c578181015183820152602001613164565b50505050905001935050505060006040518083038186803b1580156131a057600080fd5b505afa92505050801561326057506040513d6000823e601f3d908101601f1916820160405260208110156131d357600080fd5b8101908080516040519392919084600160201b8211156131f257600080fd5b90830190602082018581111561320757600080fd5b82518660208202830111600160201b8211171561322357600080fd5b82525081516020918201928201910280838360005b83811015613250578181015183820152602001613238565b5050505090500160405250505060015b6132c057604080516002808252606080830184529260208301908036833701905050905060008160008151811061329357fe5b6020026020010181815250506000816001815181106132ae57fe5b60209081029190910101529050610cba565b9050610cba565b600c60205282600052604060002060205281600052604060002081815481106132ef57600080fd5b6000918252602090912001546001600160a01b0316925083915050565b600d5460ff1681565b600a602052816000526040600020818154811061333157600080fd5b6000918252602090912001546001600160a01b03169150829050565b600080546001600160a01b031633146133975760405162461bcd60e51b81526004018080602001828103825260228152602001806141646022913960400191505060405180910390fd5b6001600160a01b038085166000908152600c6020908152604080832093871683529281529190208351610a52928501906140e9565b60408051600280825260608083018452928392919060208301908036833701905050905084816000815181106133fe57fe5b60200260200101906001600160a01b031690816001600160a01b031681525050838160018151811061342c57fe5b6001600160a01b039283166020918202929092018101919091528682166000908152600c825260408082209388168252929091522054156134e8576001600160a01b038086166000908152600c60209081526040808320938816835292815290829020805483518184028101840190945280845290918301828280156134db57602002820191906000526020600020905b81546001600160a01b031681526001909101906020018083116134bd575b5050505050915050610a58565b604080516244414960e81b8152600b60038201529051908190036023019020546001600160a01b038681169116148061354c575060408051635553444360e01b8152600b60048201529051908190036024019020546001600160a01b038681169116145b80613582575060408051631554d11560e21b8152600b60048201529051908190036024019020546001600160a01b038681169116145b1561358e579050610a58565b604080516244414960e81b8152600b60038201529051908190036023019020546001600160a01b03858116911614806135f2575060408051635553444360e01b8152600b60048201529051908190036024019020546001600160a01b038581169116145b80613628575060408051631554d11560e21b8152600b60048201529051908190036024019020546001600160a01b038581169116145b15613634579050610a58565b604080516003808252608082019092526060916020820183803683375050604080516003808252608082019092529293506060929150602082018380368337505060408051600380825260808201909252929350606092915060208201838036833701905050905087836000815181106136aa57fe5b6001600160a01b039283166020918202929092010152604080516244414960e81b8152600b60038201529051908190036023019020548451911690849060019081106136f257fe5b60200260200101906001600160a01b031690816001600160a01b031681525050868360028151811061372057fe5b60200260200101906001600160a01b031690816001600160a01b031681525050878260008151811061374e57fe5b6001600160a01b03928316602091820292909201015260408051635553444360e01b8152600b600482015290519081900360240190205483519116908390600190811061379757fe5b60200260200101906001600160a01b031690816001600160a01b03168152505086826002815181106137c557fe5b60200260200101906001600160a01b031690816001600160a01b03168152505087816000815181106137f357fe5b6001600160a01b03928316602091820292909201015260408051631554d11560e21b8152600b600482015290519081900360240190205482519116908290600190811061383c57fe5b60200260200101906001600160a01b031690816001600160a01b031681525050868160028151811061386a57fe5b60200260200101906001600160a01b031690816001600160a01b03168152505060006138968588613111565b6001815181106138a257fe5b6020026020010151905060606138b88589613111565b905060606138c6848a613111565b905060606138d4868b613111565b90506000836001855103815181106138e857fe5b6020026020010151905060008360018551038151811061390457fe5b6020026020010151905060008360018551038151811061392057fe5b6020908102919091010151604080516002808252606082810190935292935089928160200160208202803683375050604080516003808252608082019092529293506060929150602082018380368337019050508e925090506001868b101561398d57508592508c905060005b8484101561399f57508392508b905060005b858410156139b157508492508a905060005b600084116139f05760405162461bcd60e51b815260040180806020018281038252603d815260200180614186603d913960400191505060405180910390fd5b60018115151415613a1257829f50505050505050505050505050505050610a58565b509d50610a589c50505050505050505050505050565b600e5481565b600f5481565b600080546001600160a01b03163314613a7e5760405162461bcd60e51b81526004018080602001828103825260228152602001806141646022913960400191505060405180910390fd5b81600b846040518082805190602001908083835b60208310613ab15780518252601f199092019160209182019101613a92565b51815160209384036101000a6000190180199092169116179052920194855250604051938490030190922080546001600160a01b0319166001600160a01b039490941693909317909255506001949350505050565b600080546001600160a01b03163314613b505760405162461bcd60e51b81526004018080602001828103825260228152602001806141646022913960400191505060405180910390fd5b50600d805460ff1916911515919091179055600190565b6000828202831580613b81575082848281613b7e57fe5b04145b610a5857fe5b6001546000906001600160a01b038581169116148015613bb457506002546001600160a01b038481169116145b15613c2757600360009054906101000a90046001600160a01b03166001600160a01b031663d0e30db0346040518263ffffffff1660e01b81526004016000604051808303818588803b158015613c0957600080fd5b505af1158015613c1d573d6000803e3d6000fd5b5050505050610a58565b6001600160a01b038416613dcb57600254606090613c4f906001600160a01b031685856133cc565b600854604051637ff36ab560e01b8152600060048201818152306044840181905266038d7ea4c68000606485018190526080602486019081528751608487015287519798506001600160a01b0390961696637ff36ab59634968a959260a490910190602080880191028083838b5b83811015613cd5578181015183820152602001613cbd565b50505050905001955050505050506000604051808303818588803b158015613cfc57600080fd5b505af1158015613d10573d6000803e3d6000fd5b50505050506040513d6000823e601f3d908101601f191682016040526020811015613d3a57600080fd5b8101908080516040519392919084600160201b821115613d5957600080fd5b908301906020820185811115613d6e57600080fd5b82518660208202830111600160201b82111715613d8a57600080fd5b82525081516020918201928201910280838360005b83811015613db7578181015183820152602001613d9f565b505050509050016040525050505050610a58565b6002546001600160a01b0385811691161415613ee35760035460408051632e1a7d4d60e01b81526004810185905290516001600160a01b0390921691632e1a7d4d9160248082019260009290919082900301818387803b158015613e2e57600080fd5b505af1158015613e42573d6000803e3d6000fd5b505060025460609250613e6091506001600160a01b031685856133cc565b600854604051637ff36ab560e01b8152600060048201818152306044840181905266038d7ea4c68000606485018190526080602486019081528751608487015287519798506001600160a01b0390961696637ff36ab5968b968a959260a490910190602087810191028083838b8315613cd5578181015183820152602001613cbd565b6060613ef08585856133cc565b90506060613efe8285613f56565b9050600081600183510381518110613f1257fe5b60200260200101519050809350505050610a58565b6000808211613f3257fe5b6000828481613f3d57fe5b049050828481613f4957fe5b06818402018414610a5857fe5b6008546040516338ed173960e01b815260048101838152600060248301819052306064840181905266038d7ea4c680006084850181905260a060448601908152885160a48701528851606097929688966001600160a01b03909416956338ed1739958b9591948d9491938b939260c490910190602080880191028083838b5b83811015613fed578181015183820152602001613fd5565b505050509050019650505050505050600060405180830381600087803b15801561401657600080fd5b505af115801561402a573d6000803e3d6000fd5b505050506040513d6000823e601f3d908101601f19168201604052602081101561405357600080fd5b8101908080516040519392919084600160201b82111561407257600080fd5b90830190602082018581111561408757600080fd5b82518660208202830111600160201b821117156140a357600080fd5b82525081516020918201928201910280838360005b838110156140d05781810151838201526020016140b8565b5050505091909101604052509298975050505050505050565b82805482825590600052602060002090810192821561413e579160200282015b8281111561413e57825182546001600160a01b0319166001600160a01b03909116178255602090920191600190910190614109565b5061414a92915061414e565b5090565b5b8082111561414a576000815560010161414f56fe4f6e6c79206f776e65722063616e2063616c6c20746869732066756e6374696f6e2e546869732074726164652077696c6c20726573756c7420696e2067657474696e67207a65726f20746f6b656e73206261636b2e20526576657274696e6741646d696e2063616e6e6f7420736574207468652066656520686967686572207468616e207468652063757272656e74206d6178666565596f752068617665206e6f7420617070726f766564207468697320636f6e7472616374206f7220646f206e6f74206861766520656e6f75676820746f6b656e20666f722074686973207472616e73666572202032596f752068617665206e6f7420617070726f766564207468697320636f6e7472616374206f7220646f206e6f74206861766520656e6f75676820746f6b656e20666f722074686973207472616e736665722031596f752068617665206e6f7420617070726f766564207468697320636f6e7472616374206f7220646f206e6f74206861766520656e6f75676820746f6b656e20666f722074686973207472616e7366657220203320756e7772617070696e6741646d696e2063616e206f6e6c7920736574206d617820666565206f6e636520616e64206974206973207065726da26469706673582212209f95ac50a14e0200256dd33b83437eed7a233d825155dd55ac740b487bd9c87f64736f6c63430007040033",
  "immutableReferences": {},
  "source": "/*\n                                       `.-:+osyhhhhhhyso+:-.`\n                                   .:+ydmNNNNNNNNNNNNNNNNNNmdy+:.\n                                .+ymNNNNNNNNNNNNNNNNNNNNNNNNNNNNmy+.\n                             `/hmNNNNNNNNmdys+//:::://+sydmNNNNNNNNmh/`\n                           .odNNNNNNNdy+-.`              `.-+ydNNNNNNNdo.\n                         `omNNNNNNdo-`                        `-odNNNNNNmo`\n                        :dNNNNNNh/`                              `/hNNNNNNd:\n                      `oNNNNNNh:                     /-/.           :hNNNNNNo`\n                     `yNNNNNm+`                      mNNm-           `+mNNNNNy`\n                    `hNNNNNd-                        hNNNm.            -dNNNNNh`\n                    yNNNNNd.                         .ymNNh             .dNNNNNy\n                   /NNNNNm.                            -mNNys+.          .mNNNNN/\n                  `mNNNNN:                           `:hNNNNNNNs`         :NNNNNm`\n                  /NNNNNh                          `+dNNNNNNNNNNd.         hNNNNN/\n                  yNNNNN/               .:+syyhhhhhmNNNNNNNNNNNNNm`        /NNNNNy\n                  dNNNNN.            `+dNNNNNNNNNNNNNNNNNNNNNNNmd+         .NNNNNd\n                  mNNNNN`           -dNNNNNNNNNNNNNNNNNNNNNNm-             `NNNNNm\n                  dNNNNN.          -NNNNNNNNNNNNNNNNNNNNNNNN+              .NNNNNd\n                  yNNNNN/          dNNNNNNNNNNNNNNNNNNNNNNNN:              /NNNNNy\n                  /NNNNNh         .NNNNNNNNNNNNNNNNNNNNNNNNd`              hNNNNN/\n                  `mNNNNN:        -NNNNNNNNNNNNNNNNNNNNNNNh.              :NNNNNm`\n                   /NNNNNm.       `NNNNNNNNNNNNNNNNNNNNNh:               .mNNNNN/\n                    yNNNNNd.      .yNNNNNNNNNNNNNNNdmNNN/               .dNNNNNy\n                    `hNNNNNd-    `dmNNNNNNNNNNNNdo-`.hNNh              -dNNNNNh`\n                     `yNNNNNm+`   oNNmmNNNNNNNNNy.   `sNNdo.         `+mNNNNNy`\n                      `oNNNNNNh:   ....++///+++++.     -+++.        :hNNNNNNo`\n                        :dNNNNNNh/`                              `/hNNNNNNd:\n                         `omNNNNNNdo-`                        `-odNNNNNNmo`\n                           .odNNNNNNNdy+-.`              `.-+ydNNNNNNNdo.\n                             `/hmNNNNNNNNmdys+//:::://+sydmNNNNNNNNmh/`\n                                .+ymNNNNNNNNNNNNNNNNNNNNNNNNNNNNmy+.\n                                   .:+ydmNNNNNNNNNNNNNNNNNNmdy+:.\n                                       `.-:+yourewelcome+:-.`\n /$$$$$$$  /$$                                               /$$      /$$\n| $$__  $$| $$                                              | $$$    /$$$\n| $$  \\ $$| $$  /$$$$$$  /$$   /$$ /$$   /$$  /$$$$$$$      | $$$$  /$$$$  /$$$$$$  /$$$$$$$   /$$$$$$  /$$   /$$\n| $$$$$$$/| $$ /$$__  $$|  $$ /$$/| $$  | $$ /$$_____/      | $$ $$/$$ $$ /$$__  $$| $$__  $$ /$$__  $$| $$  | $$\n| $$____/ | $$| $$$$$$$$ \\  $$$$/ | $$  | $$|  $$$$$$       | $$  $$$| $$| $$  \\ $$| $$  \\ $$| $$$$$$$$| $$  | $$\n| $$      | $$| $$_____/  >$$  $$ | $$  | $$ \\____  $$      | $$\\  $ | $$| $$  | $$| $$  | $$| $$_____/| $$  | $$\n| $$      | $$|  $$$$$$$ /$$/\\  $$|  $$$$$$/ /$$$$$$$/      | $$ \\/  | $$|  $$$$$$/| $$  | $$|  $$$$$$$|  $$$$$$$\n|__/      |__/ \\_______/|__/  \\__/ \\______/ |_______/       |__/     |__/ \\______/ |__/  |__/ \\_______/ \\____  $$\n                                                                                                        /$$  | $$\n                                                                                                       |  $$$$$$/\n                                                                                                       \\______/\n*/\n\n\n// This program is free software: you can redistribute it and/or modify\n// it under the terms of the GNU General Public License as published by\n// the Free Software Foundation, either version 3 of the License, or\n// (at your option) any later version.\n\n// This program is distributed in the hope that it will be useful,\n// but WITHOUT ANY WARRANTY; without even the implied warranty of\n// MERCHANTABILITY or FITNESS FOR A PARTICULAR PURPOSE.  See the\n// GNU General Public License for more details.\n\n// You should have received a copy of the GNU General Public License\n// along with this program.  If not, see <http://www.gnu.org/licenses/>.\n\n\n\npragma solidity 0.7.4;\n\n\ninterface ERC20 {\n    function totalSupply() external view returns(uint supply);\n\n    function balanceOf(address _owner) external view returns(uint balance);\n\n    function transfer(address _to, uint _value) external returns(bool success);\n\n    function transferFrom(address _from, address _to, uint _value) external returns(bool success);\n\n    function approve(address _spender, uint _value) external returns(bool success);\n\n    function allowance(address _owner, address _spender) external view returns(uint remaining);\n\n    function decimals() external view returns(uint digits);\n    event Approval(address indexed _owner, address indexed _spender, uint _value);\n}\n\ninterface WrappedETH {\n    function totalSupply() external view returns(uint supply);\n\n    function balanceOf(address _owner) external view returns(uint balance);\n\n    function transfer(address _to, uint _value) external returns(bool success);\n\n    function transferFrom(address _from, address _to, uint _value) external returns(bool success);\n\n    function approve(address _spender, uint _value) external returns(bool success);\n\n    function allowance(address _owner, address _spender) external view returns(uint remaining);\n\n    function decimals() external view returns(uint digits);\n    event Approval(address indexed _owner, address indexed _spender, uint _value);\n\n    function deposit() external payable;\n\n    function withdraw(uint256 wad) external;\n\n}\n\ninterface UniswapFactory{\n  function getPair(address tokenA, address tokenB) external view returns (address pair);\n}\n\ninterface LPERC20{\n\n    function token0() external view returns(address);\n    function token1() external view returns(address);\n}\n\n\n\ninterface SushiV2{\n\n\n   function addLiquidity ( address tokenA, address tokenB, uint256 amountADesired, uint256 amountBDesired, uint256 amountAMin, uint256 amountBMin, address to, uint256 deadline ) external returns ( uint256 amountA, uint256 amountB, uint256 liquidity );\n   function addLiquidityETH ( address token, uint256 amountTokenDesired, uint256 amountTokenMin, uint256 amountETHMin, address to, uint256 deadline ) external returns ( uint256 amountToken, uint256 amountETH, uint256 liquidity );\n   function removeLiquidityETH ( address token, uint256 liquidity, uint256 amountTokenMin, uint256 amountETHMin, address to, uint256 deadline ) external returns ( uint256 amountToken, uint256 amountETH );\n   function removeLiquidity ( address tokenA, address tokenB, uint256 liquidity, uint256 amountAMin, uint256 amountBMin, address to, uint256 deadline ) external returns ( uint256 amountA, uint256 amountB );\n\n   function swapExactTokensForTokens ( uint256 amountIn, uint256 amountOutMin, address[] calldata path, address to, uint256 deadline ) external returns ( uint256[] memory amounts );\n    function swapExactETHForTokens(uint amountOutMin, address[] calldata path, address to, uint deadline)\n        external\n        payable\n        returns (uint[] memory amounts);\n   function getAmountsOut(uint amountIn, address[] calldata path) external view returns (uint[] memory amounts);\n\n}\n\n\n\n\n\nlibrary SafeMath {\n  function mul(uint256 a, uint256 b) internal view returns (uint256) {\n    uint256 c = a * b;\n    assert(a == 0 || c / a == b);\n    return c;\n  }\n\n  function div(uint256 a, uint256 b) internal view returns (uint256) {\n    assert(b > 0); // Solidity automatically throws when dividing by 0\n    uint256 c = a / b;\n    assert(a == b * c + a % b); // There is no case in which this doesn't hold\n    return c;\n  }\n\n\n\n  function sub(uint256 a, uint256 b) internal view returns (uint256) {\n    assert(b <= a);\n    return a - b;\n  }\n\n  function add(uint256 a, uint256 b) internal view returns (uint256) {\n    uint256 c = a + b;\n    assert(c >= a);\n    return c;\n  }\n\n}\n\n\ncontract WrapAndUnWrapSushi{\n\n  using SafeMath\n    for uint256;\n\n  address payable public owner;\n  //placehodler token address for specifying eth tokens\n  address public ETH_TOKEN_ADDRESS  = address(0x0);\n  address public WETH_TOKEN_ADDRESS = 0xC02aaA39b223FE8D0A0e5C4F27eAD9083C756Cc2;\n  WrappedETH wethToken = WrappedETH(WETH_TOKEN_ADDRESS);\n  uint256 approvalAmount = 1000000000000000000000000000000;\n  uint256 longTimeFromNow = 1000000000000000000000000000;\n  address sushiAddress = 0xd9e1cE17f2641f24aE83637ab66a2cca9C378B9F;\n  address uniFactoryAddress = 0x5C69bEe701ef814a2B6a3EDD4B1652CB9cc5aA6f;\n  SushiV2 sushiExchange = SushiV2(sushiAddress);\n  UniswapFactory factory = UniswapFactory(uniFactoryAddress);\n  mapping (address => address[]) public lpTokenAddressToPairs;\n  mapping(string=>address) public stablecoins;\n  mapping(address=>mapping(address=>address[])) public presetPaths;\n  bool public changeRecpientIsOwner;\n  uint256 public fee = 0;\n  uint256 public maxfee = 0;\n\n\n  modifier onlyOwner {\n        require(\n            msg.sender == owner,\n            \"Only owner can call this function.\"\n        );\n        _;\n}\n\n    fallback() external payable {\n    }\n\n  constructor() payable {\n         stablecoins[\"DAI\"] = 0x6B175474E89094C44Da98b954EedeAC495271d0F;\n         stablecoins[\"USDT\"] = 0xdAC17F958D2ee523a2206206994597C13D831ec7;\n         stablecoins[\"USDC\"] = 0xA0b86991c6218b36c1d19D4a2e9Eb0cE3606eB48;\n         changeRecpientIsOwner = false;\n        owner= msg.sender;\n  }\n\n  function wrap(address sourceToken, address[] memory destinationTokens, uint256 amount) public payable returns(address, uint256){\n\n\n    ERC20 sToken = ERC20(sourceToken);\n    ERC20 dToken = ERC20(destinationTokens[0]);\n\n      if(destinationTokens.length==1){\n\n        if(sourceToken != ETH_TOKEN_ADDRESS){\n          require(sToken.transferFrom(msg.sender, address(this), amount), \"You have not approved this contract or do not have enough token for this transfer 1\");\n          if(sToken.allowance(address(this), sushiAddress) < amount.mul(2)){\n                  sToken.approve(sushiAddress, amount.mul(3));\n            }\n        }\n\n        conductUniswap(sourceToken, destinationTokens[0], amount);\n        uint256 thisBalance = dToken.balanceOf(address(this));\n        dToken.transfer(msg.sender, thisBalance);\n        return (destinationTokens[0], thisBalance);\n\n      }\n\n      else{\n\n        bool updatedweth =false;\n        if(sourceToken == ETH_TOKEN_ADDRESS){\n          WrappedETH sToken1 = WrappedETH(WETH_TOKEN_ADDRESS);\n          sToken1.deposit{value:msg.value}();\n          sToken = ERC20(WETH_TOKEN_ADDRESS);\n          amount = msg.value;\n          sourceToken = WETH_TOKEN_ADDRESS;\n          updatedweth =true;\n        }\n\n\n        if(sourceToken != ETH_TOKEN_ADDRESS && updatedweth==false){\n          require(sToken.transferFrom(msg.sender, address(this), amount), \"You have not approved this contract or do not have enough token for this transfer  2\");\n          if(sToken.allowance(address(this), sushiAddress) < amount.mul(2)){\n                  sToken.approve(sushiAddress, amount.mul(3));\n            }\n        }\n\n        if(destinationTokens[0] == ETH_TOKEN_ADDRESS){\n              destinationTokens[0] = WETH_TOKEN_ADDRESS;\n        }\n        if(destinationTokens[1] == ETH_TOKEN_ADDRESS){\n            destinationTokens[1] = WETH_TOKEN_ADDRESS;\n        }\n\n\n\n        if(sourceToken !=destinationTokens[0]){\n            conductUniswap(sourceToken, destinationTokens[0], amount.div(2));\n        }\n        if(sourceToken !=destinationTokens[1]){\n\n            conductUniswap(sourceToken, destinationTokens[1], amount.div(2));\n        }\n\n        ERC20 dToken2 = ERC20(destinationTokens[1]);\n        uint256 dTokenBalance = dToken.balanceOf(address(this));\n        uint256 dTokenBalance2 = dToken2.balanceOf(address(this));\n\n        if(dToken.allowance(address(this), sushiAddress) < dTokenBalance.mul(2)){\n             dToken.approve(sushiAddress, dTokenBalance.mul(3));\n        }\n\n        if(dToken2.allowance(address(this), sushiAddress) < dTokenBalance2.mul(2)){\n            dToken2.approve(sushiAddress, dTokenBalance2.mul(3));\n        }\n\n        (,,uint liquidityCoins)  = sushiExchange.addLiquidity(destinationTokens[0],destinationTokens[1], dTokenBalance, dTokenBalance2, 1,1, address(this), longTimeFromNow);\n\n        address thisPairAddress = factory.getPair(destinationTokens[0],destinationTokens[1]);\n        ERC20 lpToken = ERC20(thisPairAddress);\n        lpTokenAddressToPairs[thisPairAddress] =[destinationTokens[0], destinationTokens[1]];\n        uint256 thisBalance =lpToken.balanceOf(address(this));\n\n        if(fee>0){\n            uint256 totalFee = (thisBalance.mul(fee)).div(10000);\n            if(totalFee >0){\n                lpToken.transfer(owner, totalFee);\n            }\n            thisBalance =lpToken.balanceOf(address(this));\n            lpToken.transfer(msg.sender, thisBalance);\n\n        }\n        else{\n            lpToken.transfer(msg.sender, thisBalance);\n        }\n\n\n        //transfer any change to changeRecipient (from a pair imbalance. Should never be more than a few basis points)\n        address changeRecipient = msg.sender;\n        if(changeRecpientIsOwner == true){\n            changeRecipient = owner;\n        }\n        if(dToken.balanceOf(address(this)) >0){\n            dToken.transfer(changeRecipient, dToken.balanceOf(address(this)));\n        }\n        if(dToken2.balanceOf(address(this)) >0){\n            dToken2.transfer(changeRecipient, dToken2.balanceOf(address(this)));\n        }\n\n        return (thisPairAddress,thisBalance) ;\n      }\n\n\n\n    }\n\n    function updateStableCoinAddress(string memory coinName, address newAddress) public onlyOwner returns(bool){\n        stablecoins[coinName] = newAddress;\n        return true;\n\n    }\n\n    function updatePresetPaths(address sellToken, address buyToken, address[] memory newPath ) public onlyOwner returns(bool){\n        presetPaths[sellToken][buyToken] = newPath;\n        return true;\n    }\n\n    //owner can turn on ability to collect a small fee from trade imbalances on LP conversions\n    function updateChangeRecipientBool(bool changeRecpientIsOwnerBool ) public onlyOwner returns(bool){\n        changeRecpientIsOwner = changeRecpientIsOwnerBool;\n        return true;\n    }\n\n\n\n      function unwrap(address sourceToken, address destinationToken, uint256 amount) public payable returns( uint256){\n\n        address originalDestinationToken = destinationToken;\n        ERC20 sToken = ERC20(sourceToken);\n        if(destinationToken == ETH_TOKEN_ADDRESS){\n            destinationToken = WETH_TOKEN_ADDRESS;\n        }\n        ERC20 dToken = ERC20(destinationToken);\n\n        if(sourceToken != ETH_TOKEN_ADDRESS){\n          require(sToken.transferFrom(msg.sender, address(this), amount), \"You have not approved this contract or do not have enough token for this transfer  3 unwrapping\");\n        }\n\n        LPERC20 thisLpInfo = LPERC20(sourceToken);\n        lpTokenAddressToPairs[sourceToken] = [thisLpInfo.token0(), thisLpInfo.token1()];\n\n          if(lpTokenAddressToPairs[sourceToken].length !=0){\n            if(sToken.allowance(address(this), sushiAddress) < amount.mul(2)){\n                  sToken.approve(sushiAddress, amount.mul(3));\n            }\n\n          sushiExchange.removeLiquidity(lpTokenAddressToPairs[sourceToken][0], lpTokenAddressToPairs[sourceToken][1], amount, 0,0, address(this), longTimeFromNow);\n\n          ERC20 pToken1 = ERC20(lpTokenAddressToPairs[sourceToken][0]);\n          ERC20 pToken2 = ERC20(lpTokenAddressToPairs[sourceToken][1]);\n\n          uint256 pTokenBalance = pToken1.balanceOf(address(this));\n          uint256 pTokenBalance2 = pToken2.balanceOf(address(this));\n\n           if(pToken1.allowance(address(this), sushiAddress) < pTokenBalance.mul(2)){\n                  pToken1.approve(sushiAddress, pTokenBalance.mul(3));\n            }\n\n            if(pToken2.allowance(address(this), sushiAddress) < pTokenBalance2.mul(2)){\n                  pToken2.approve(sushiAddress, pTokenBalance2.mul(3));\n            }\n\n          if(lpTokenAddressToPairs[sourceToken][0] != destinationToken){\n              conductUniswap(lpTokenAddressToPairs[sourceToken][0], destinationToken, pTokenBalance);\n          }\n          if(lpTokenAddressToPairs[sourceToken][1] != destinationToken){\n              conductUniswap(lpTokenAddressToPairs[sourceToken][1], destinationToken, pTokenBalance2);\n          }\n\n\n          uint256 destinationTokenBalance = dToken.balanceOf(address(this));\n\n          if(originalDestinationToken == ETH_TOKEN_ADDRESS){\n              wethToken.withdraw(destinationTokenBalance);\n              if(fee >0){\n                  uint256 totalFee = (address(this).balance.mul(fee)).div(10000);\n                  if(totalFee >0){\n                      owner.transfer(totalFee);\n                  }\n                  msg.sender.transfer(address(this).balance);\n              }\n              else{\n                msg.sender.transfer(address(this).balance);\n              }\n          }\n          else{\n              if(fee >0){\n                   uint256 totalFee = (destinationTokenBalance.mul(fee)).div(10000);\n                   if(totalFee >0){\n                       dToken.transfer(owner, totalFee);\n                   }\n                   destinationTokenBalance = dToken.balanceOf(address(this));\n                   dToken.transfer(msg.sender, destinationTokenBalance);\n\n              }\n              else{\n               dToken.transfer(msg.sender, destinationTokenBalance);\n              }\n          }\n\n\n          return destinationTokenBalance;\n\n        }\n\n        else{\n\n            if(sToken.allowance(address(this), sushiAddress) < amount.mul(2)){\n                  sToken.approve(sushiAddress, amount.mul(3));\n            }\n            if(sourceToken != destinationToken){\n                conductUniswap(sourceToken, destinationToken, amount);\n            }\n          uint256 destinationTokenBalance = dToken.balanceOf(address(this));\n          dToken.transfer(msg.sender, destinationTokenBalance);\n          return destinationTokenBalance;\n        }\n\n      }\n\n  function updateOwnerAddress(address payable newOwner) onlyOwner public returns (bool){\n     owner = newOwner;\n     return true;\n   }\n\n   function updateSushiExchange(address newAddress ) public onlyOwner returns (bool){\n\n    sushiExchange = SushiV2( newAddress);\n    sushiAddress = newAddress;\n    return true;\n\n  }\n\n  function updateUniswapFactory(address newAddress ) public onlyOwner returns (bool){\n\n   factory = UniswapFactory( newAddress);\n   uniFactoryAddress = newAddress;\n   return true;\n\n }\n\n\n  function conductUniswap(address sellToken, address buyToken, uint amount) internal returns (uint256 amounts1){\n\n            if(sellToken ==ETH_TOKEN_ADDRESS && buyToken == WETH_TOKEN_ADDRESS){\n                wethToken.deposit{value:msg.value}();\n            }\n            else if(sellToken == address(0x0)){\n\n               // address [] memory addresses = new address[](2);\n               address [] memory addresses = getBestPath(WETH_TOKEN_ADDRESS, buyToken, amount);\n                //addresses[0] = WETH_TOKEN_ADDRESS;\n                //addresses[1] = buyToken;\n                sushiExchange.swapExactETHForTokens{value:msg.value}(0, addresses, address(this), 1000000000000000 );\n\n            }\n\n            else if(sellToken == WETH_TOKEN_ADDRESS){\n                wethToken.withdraw(amount);\n\n                //address [] memory addresses = new address[](2);\n                address [] memory addresses = getBestPath(WETH_TOKEN_ADDRESS, buyToken, amount);\n                //addresses[0] = WETH_TOKEN_ADDRESS;\n                //addresses[1] = buyToken;\n                sushiExchange.swapExactETHForTokens{value:amount}(0, addresses, address(this), 1000000000000000 );\n\n            }\n\n\n\n            else{\n\n          address [] memory addresses = getBestPath(sellToken, buyToken, amount);\n           uint256 [] memory amounts = conductUniswapT4T(addresses, amount );\n           uint256 resultingTokens = amounts[amounts.length-1];\n           return resultingTokens;\n            }\n    }\n\n\n    //gets the best path to route the transaction on Uniswap\n    function getBestPath(address sellToken, address buyToken, uint256 amount) public view returns (address[] memory){\n\n        address [] memory defaultPath =new address[](2);\n        defaultPath[0]=sellToken;\n        defaultPath[1] = buyToken;\n\n\n        if(presetPaths[sellToken][buyToken].length !=0){\n            return presetPaths[sellToken][buyToken];\n        }\n\n\n        if(sellToken == stablecoins[\"DAI\"] || sellToken == stablecoins[\"USDC\"] || sellToken == stablecoins[\"USDT\"]){\n            return defaultPath;\n        }\n        if(buyToken == stablecoins[\"DAI\"] || buyToken == stablecoins[\"USDC\"] || buyToken == stablecoins[\"USDT\"]){\n            return defaultPath;\n        }\n\n\n\n        address[] memory daiPath = new address[](3);\n        address[] memory usdcPath =new address[](3);\n        address[] memory usdtPath =new address[](3);\n\n        daiPath[0] = sellToken;\n        daiPath[1] = stablecoins[\"DAI\"];\n        daiPath[2] = buyToken;\n\n        usdcPath[0] = sellToken;\n        usdcPath[1] = stablecoins[\"USDC\"];\n        usdcPath[2] = buyToken;\n\n        usdtPath[0] = sellToken;\n        usdtPath[1] = stablecoins[\"USDT\"];\n        usdtPath[2] = buyToken;\n\n\n        uint256 directPathOutput =  getPriceFromUniswap(defaultPath, amount)[1];\n\n\n        uint256[] memory daiPathOutputRaw = getPriceFromUniswap(daiPath, amount);\n        uint256[]  memory usdtPathOutputRaw = getPriceFromUniswap(usdtPath, amount);\n        uint256[]  memory usdcPathOutputRaw = getPriceFromUniswap(usdcPath, amount);\n\n        //uint256 directPathOutput = directPathOutputRaw[directPathOutputRaw.length-1];\n        uint256 daiPathOutput = daiPathOutputRaw[daiPathOutputRaw.length-1];\n        uint256 usdtPathOutput = usdtPathOutputRaw[usdtPathOutputRaw.length-1];\n        uint256 usdcPathOutput = usdcPathOutputRaw[usdcPathOutputRaw.length-1];\n\n        uint256 bestPathOutput = directPathOutput;\n        address[] memory bestPath = new address[](2);\n        address[] memory bestPath3 = new address[](3);\n        //return defaultPath;\n        bestPath = defaultPath;\n\n        bool isTwoPath = true;\n\n        if(directPathOutput < daiPathOutput){\n            isTwoPath=false;\n            bestPathOutput = daiPathOutput;\n            bestPath3 = daiPath;\n        }\n        if(bestPathOutput < usdcPathOutput){\n            isTwoPath=false;\n            bestPathOutput = usdcPathOutput;\n            bestPath3 = usdcPath;\n        }\n         if(bestPathOutput < usdtPathOutput){\n             isTwoPath=false;\n            bestPathOutput = usdtPathOutput;\n            bestPath3 = usdtPath;\n        }\n\n        require(bestPathOutput >0, \"This trade will result in getting zero tokens back. Reverting\");\n\n        if(isTwoPath==true){\n              return bestPath;\n        }\n        else{\n            return bestPath3;\n        }\n\n\n\n    }\n\n    function getPriceFromUniswap(address  [] memory theAddresses, uint amount) public view returns (uint256[] memory amounts1){\n\n\n        try sushiExchange.getAmountsOut(amount,theAddresses ) returns (uint256[] memory amounts){\n            return amounts;\n        }\n        catch  {\n            uint256 [] memory amounts2= new uint256[](2);\n            amounts2[0]=0;\n            amounts2[1]=0;\n            return amounts2;\n\n        }\n\n    }\n\n    function conductUniswapT4T(address  [] memory theAddresses, uint amount) internal returns (uint256[] memory amounts1){\n\n           uint256 deadline = 1000000000000000;\n           uint256 [] memory amounts =  sushiExchange.swapExactTokensForTokens(amount, 0, theAddresses, address(this),deadline );\n           return amounts;\n\n    }\n\n    function adminEmergencyWithdrawTokens(address token, uint amount, address payable destination) public onlyOwner returns(bool) {\n\n      if (address(token) == ETH_TOKEN_ADDRESS) {\n          destination.transfer(amount);\n      }\n      else {\n          ERC20 tokenToken = ERC20(token);\n          require(tokenToken.transfer(destination, amount));\n      }\n      return true;\n  }\n\n\n  function setFee(uint256 newFee) public onlyOwner returns (bool){\n    require(newFee<=maxfee, \"Admin cannot set the fee higher than the current maxfee\");\n    fee = newFee;\n    return true;\n  }\n\n\n  function setMaxFee(uint256 newMax) public onlyOwner returns (bool){\n    require(maxfee==0, \"Admin can only set max fee once and it is perm\");\n    maxfee = newMax;\n    return true;\n  }\n\n  function addLPPair(address lpAddress, address token1, address token2) onlyOwner public returns (bool){\n      lpTokenAddressToPairs[lpAddress] = [token1, token2];\n      return true;\n  }\n\n  function getLPTokenByPair(address token1, address token2) view public returns (address lpAddr){\n      address thisPairAddress = factory.getPair(token1,token2);\n      return thisPairAddress;\n  }\n\n   function getUserTokenBalance(address userAddress, address tokenAddress) public view returns (uint256){\n    ERC20 token = ERC20(tokenAddress);\n    return token.balanceOf(userAddress);\n\n  }\n\n}",
  "sourcePath": "/Users/mulish/Desktop/plexus/contracts/contracts/wrapperSushi.sol",
  "compiler": {
    "name": "solc",
    "version": "0.7.4+commit.3f05b770.Emscripten.clang"
  },
  "schemaVersion": "3.3.4",
  "updatedAt": "2021-03-02T13:04:30.720Z",
  "devdoc": {
    "kind": "dev",
    "methods": {},
    "version": 1
  },
  "userdoc": {
    "kind": "user",
    "methods": {},
    "version": 1
  }
}